:020000040800F2
:1000000078130020E90100080F2C0008F9200008EF
:100010000D2C0008C9050008B133000800000000DD
:10002000000000000000000000000000D52C0008C7
:100030006907000800000000B12C0008D72C000858
:10004000030200080302000803020008030200087C
:1000500003020008030200086B0700089707000866
:10006000030200080302000803020008030200085C
:10007000030200080302000803020008030200084C
:10008000030200080302000803020008030200083C
:10009000030200080302000803020008030200082C
:1000A000030200082D2D00080302000803020008C7
:1000B000392D0008452D0008512D000803020008C5
:1000C00003020008030200080302000803020008FC
:1000D00003020008A5330008030200080302000819
:1000E00071070008030200080302000800F002F88C
:1000F00000F051F80AA090E8000C82448344AAF171
:100100000107DA4501D100F046F8AFF2090EBAE86E
:100110000F0013F0010F18BFFB1A43F0010318473B
:10012000485A0000685A00000A4410F8014B14F0C5
:100130000F0508BF10F8015B240908BF10F8014B38
:100140006D1E05D010F8013B6D1E01F8013BF9D181
:10015000641E03D0641E01F8015BFBD19142E4D31D
:10016000704700000023002400250026103A28BF15
:1001700078C1FBD8520728BF30C148BF0B60704719
:10018000642900F09980002070471FB500F0E5F861
:100190001FBD10B510BD00F0DCF91146FFF7F5FFEB
:1001A00003F078FD00F0FAF903B4FFF7F2FF03BCA7
:1001B00000F004FA0B49D1F800C04A685CF8043B2F
:1001C0001068184442F8040B8C4528BFA1F1DC0CE0
:1001D0008A4228BFA1F1DC02C1F800C04A6020F0C9
:1001E00000407047100D002009488047094800472B
:1001F000FEE7FEE7FEE7FEE7FEE7FEE7FEE7FEE7D7
:10020000FEE7FEE704480549054A064B7047000033
:100210002B2D0008ED000008780D00207813002039
:10022000780F0020780F00200FB41CB5074B06AAEA
:100230007B4469460090059800F073F900206946F8
:1002400000F082F91CBC5DF814FB000015030000EF
:100250002DE9F0410E460446002020622046E16868
:10026000884730B3252805D0D4E901219047206A7A
:10027000401CF2E7E168204600278847050018D0B7
:10028000A5F14100192802D820354FF40067324605
:10029000294620462760FFF773FF40B1012804D0AC
:1002A000F61D26F007060836D8E7361DD6E728469D
:1002B000DAE7206ABDE8F0812DE9F0410646002426
:1002C00010687529314616A510D0AFF300800028BC
:1002D00002DA404213A507E031688A0701D512A56A
:1002E00002E0490704D511A5012401E0AFF3008025
:1002F00000210A2206F1240709E0B0FBF2FCB0FB62
:10030000F2F302FB1C00303078541846491C0028D8
:10031000F3D123462A463046BDE8F04100F0A2B8AA
:10032000000000002D0000002B0000002000000055
:100330000B4910B5A1F17C020A4CC2E937123721F2
:1003400006E000EB104342F82130074B00FB03406E
:100350000B1EA1F10101F4DC10BD0120E8E7000053
:10036000B00C0020E119D666CD0D010040EA010372
:10037000024630B59B0710D14FF0013400E008C2AF
:1003800008C91D1B9D4315EAC41FF8D013F0FF01D7
:1003900002F8011B0DD01B0AF8E711F8013B002BF6
:1003A00002F8013B05D011F8013B002B02F8013B9C
:1003B000F3D130BD421E12F8013F002BFBD111F8E2
:1003C000013B002B02F8013BF9D170474FF00002CE
:1003D0000429C0F0128010F0030C00F01B80CCF157
:1003E000040CBCF1020F18BF00F8012BA8BF20F8C5
:1003F000022BA1EB0C0100F00DB85FEAC17C24BF19
:1004000000F8012B00F8012B48BF00F8012B7047C2
:100410004FF0000200B5134694469646203922BF9D
:10042000A0E80C50A0E80C50B1F12001BFF4F7AFE8
:10043000090728BFA0E80C5048BF0CC05DF804EBCA
:10044000890028BF40F8042B08BF704748BF20F838
:10045000022B11F0804F18BF00F8012B7047704736
:10046000704770472DE9F0470D469946924604467D
:1004700000F124080168880604D5E06921F0100124
:10048000216000E00120A84201DD471B00E00027B9
:10049000A1697A1902EB0900081AA0612078C00648
:1004A00002D42046AFF30080002608E0D4E9012101
:1004B0001AF806009047206A401C761C20624E45C0
:1004C000F4DB2078C0060AD52046AFF3008006E0B2
:1004D000D4E9012130209047206A401C2062381E58
:1004E000A7F10107F4DC07E0D4E9012118F80500C1
:1004F0009047206A401C2062281EA5F10105F3DC0C
:100500002046AFF300802078000602D50220BDE827
:10051000F0870120FBE7000001694A1C02610878AE
:10052000704700B58FB0CDE9013100210591054933
:100530007944CDE9031011466846FFF789FE0FB0F4
:1005400000BD0000E5FFFFFF0A6802F8010B0A602A
:100550007047754600F02CF8AE46050069465346D4
:1005600020F00700854618B020B5FFF74BFEBDE828
:1005700020404FF000064FF000074FF000084FF00A
:10058000000B21F00701AC46ACE8C009ACE8C0099B
:10059000ACE8C009ACE8C0098D46704710B5044608
:1005A000AFF300802046BDE81040FFF7FDBD00001E
:1005B00000487047180D00207047000001491820BE
:1005C000ABBEFEE726000200FEE700001CB51148A6
:1005D000017800291CD000210170084603F0C6FFF5
:1005E0000D4882784178CDE9001203780E300288F8
:1005F0008188408803F082F806487C38037A0178C5
:100600004268407803F0C2FCBDE81C4004F02AB800
:100610001CBD0000100200201E0000202DE9FC413E
:100620004748017800297DD04FF0000880F800800D
:10063000404603F09BFF434882784178CDE90012A1
:1006400003780E3002888188408803F057F83E4EC8
:100650003EA23221706800900020336803F0B4FDA0
:10066000706800903AA214210020336803F0ACFDBA
:10067000334910277039A1F15404487804F13C053E
:1006800009280FD822780A2A0CD88846114604F087
:100690008BF86074217848552078401C207088F8C9
:1006A00001703CE00B2804D00F280DD00A2814D08C
:1006B00035E084F8008000202218401C82F83C803D
:1006C0000A28F9DD4F702AE01D482278893802F89F
:1006D00000802078401E2070F4E720780B281ED17F
:1006E0004F702946601CFFF765FE3B20E073322007
:1006F00000F04CF964230F22611C1A4801F0A2FC9F
:10070000322000F043F90F494FF448730122613160
:10071000144801F097FC0B490D20891F4880706830
:10072000009000E009E02A4623210020336803F00E
:100730004BFDBDE8FC4103F095BFBDE8FC81000026
:10074000100200201E000020080000204D000000C4
:10075000454E54455220544845204E554D42455231
:1007600000000000680B00207047012000F01CBA58
:1007700010B54FF4805000F017FA4FF4005000F01D
:1007800013FA4FF4804000F00FFABDE810404FF428
:10079000004000F009BA022000F006BA72B6FEE787
:1007A0002DE9F84335480178002965D00027077006
:1007B000384603F0DBFE324832A2416800910368FC
:1007C00014211E2003F000FD304C31A2142160687A
:1007D00000900020236803F0F7FC606800902DA2D1
:1007E00014217820236803F0EFFC606800902AA2AF
:1007F00032210020236803F0E7FC204D4FF44876B7
:10080000703DA5F2231468784FF010080A2802D032
:100810000B2813D02CE06423032220A1204801F0F0
:1008200011FC33460122A11C1D4801F00BFC33468C
:100830000122611C1A4801F005FC13E06423032225
:1008400018A1174801F0FEFB33460122A11C1448F1
:1008500001F0F8FB33460122611C114801F0F2FB64
:1008600011484780C821201DFFF7B0FD85F80180A1
:10087000BDE8F84303F0F6BEBDE8F883100200209F
:100880001000002052494E470000000008000020E0
:1008900052000000410000004200000041544100AD
:1008A000680B0020415448001800002010B590F853
:1008B00021100022022905D00421816380F8202024
:1008C000012010BD01680B6823F00E030B60016866
:1008D0000B6823F001030B6090F84030C46B0121DA
:1008E00001FA03F3636080F8211080F8202010469D
:1008F00010BD000010B590F821100024022903D08B
:100900000421816301243DE001680A6822F00E029F
:100910000A6001680A6822F001020A601A4A016846
:10092000914201D1012121E0174A1432914201D1B3
:1009300010211BE0144A2832914201D1891515E09B
:10094000114A3C32914201D189140FE00E4A5032D3
:10095000914202D14FF4803108E00B4A6432914257
:1009600002D14FF4801101E04FF08071064A083A3D
:100970005160012180F82110002180F82010416B86
:1009800001B18847204610BD0800024070B50446FA
:1009900000F018FA0546601C02D0044800780444B0
:1009A00000F010FA401BA042FAD370BD30020020C4
:1009B0002DE9F05F784A01254FF0030951884FF087
:1009C000050B4FF00A0AB0F5804F59D0002702F509
:1009D000FC7602F5C474B0F5004F1BD06F4A04F1E9
:1009E0007C0801286AD002287AD09114884278D1F4
:1009F000104600F0D5F9002874D0A771207801289E
:100A000071D0022870D003286FD0042835D10B2074
:100A100060706FE0012947D089B3022949D00329CA
:100A200047D0042947D0052943D0062941D00729BA
:100A30003FD008293DD009293BD00A2939D00B29BC
:100A400037D00C2925D00E2917D15580307A0028AF
:100A500013D037720A215248FFF7DAFC5048143895
:100A6000C0F80170C0F80570A0F80970C772C760BF
:100A70000761C0F81E7080F82270BDE8F09F15E095
:100A8000B9B1012908D0032909D005290AD00729BD
:100A9000F3D1A2F802A0F0E7A2F80290EDE7A2F8E5
:100AA00002B0EAE7072002E05780E6E7082050801E
:100AB000E3E75580E1E7558010206BE00121104607
:100AC00000F06EF970B1A771207801280ED00228CD
:100AD0000ED0032810D00428CFD184F801A009E05B
:100AE0000EE036E00AE02AE02CE030E0657001E03C
:100AF000042018E07571C0E7072089E7A571BCE7FD
:100B00000221104600F04CF90028F7D0A771207898
:100B1000012807D002280AD003280BD00428ACD122
:100B20006770E7E702206070C8F80000E2E784F829
:100B300001B0DFE708206070C8F80090DAE784F8B9
:100B40000190D7E706206070C8F80050D2E709206E
:100B50005EE74FF4005188428FD1104600F020F933
:100B60000028CBD0A771207801280ED002280ED003
:100B700003280ED0042880D10F206070BDE8F05FFC
:100B800000220221074800F018B90C2002E00D20D5
:100B900000E00E20607070E718000020000C01409B
:100BA0006006002000080140044910B50A680242AE
:100BB00002D00860FFF7FCFE10BD000014040140E5
:100BC0002DE9F84FDFF8B891002409F1040A0AF181
:100BD000040B23460F270BF1040EC9E00125A540A5
:100BE0002A40AA427DD1674ED1F804C0ACEB06087A
:100BF000B44532D014DCBCF1030F3AD009DCBCF1AF
:100C0000000F2AD0BCF1010F1CD0BCF1020F31D172
:100C10001DE0BCF1110F17D0BCF1120F2AD119E061
:100C2000B8F5881F19D006DCB8F5803F15D0B8F5A7
:100C3000801F1FD111E0B8F5001F0ED0B8F5041FBA
:100C400018D10AE0CB6815E0CB681B1D12E0CB6819
:100C500008330FE0CB680C330CE08B682BB1012B11
:100C60004FF0080303D0456104E0042302E005616E
:100C700000E00023FF2A01D8064601E000F1040647
:100C80004FEA840501D9A5F12005D6F8008007FABE
:100C900005FC28EA0C0803FA05F548EA0508C6F839
:100CA00000804D68ED0062D5374DAE6946F0010613
:100CB000AE61AD6924F0030605F001050095334DE2
:100CC00006EB050CDCF80850A607360F07FA06F805
:100CD00025EA0805DFF8B880404503D14FF0000849
:100CE00017E044E0DFF8AC80404502D14FF0010846
:100CF0000FE0DFF8A480404502D14FF0020808E081
:100D0000DFF89880404502D14FF0030801E04FF032
:100D1000040808FA06F848EA0508CCF808804D6887
:100D2000D9F80060ED034D4601D5164300E0964327
:100D30002E604D68DAF80060AD03554601D51643C4
:100D400000E096432E604D68DBF80060ED025D46E2
:100D500001D5164300E096432E604D68DEF8006032
:100D6000AD02754601D5164300E096432E60641C23
:100D70000D682A46E5407FF431AFBDE8F88F0000EA
:100D8000000401400000111000100240000001406A
:100D900000080140000C0140001001400014014017
:100DA0008068084000D001207047C26821EA020331
:100DB0000A4043EA0241016170470AB1016170478C
:100DC0000904FBE7014880687047000030020020FA
:100DD00070B5040025D094F83D00002520B984F8B2
:100DE0003C50204600F050F9242084F83D00206853
:100DF000016821F0010101602068016841F40041AF
:100E000001602068016821F40041016000F0A2FA4D
:100E10004D4A6168914201D84C4900E04C498842F2
:100E200001D2012070BD4B492368B0FBF1F15E682F
:100E300026F03F060E435E606368934206D94FF486
:100E4000967359434FF47A73B1FBF3F12368491C4D
:100E50001E6A26F03F06314319626168914210D83C
:100E60004900401EB0FBF1F2521CC2F30B02042AEF
:100E700001D2042022E0B0FBF1F0401CC0F30B00D3
:100E80001CE0A268F2B301EBC10303EB0116431EA1
:100E9000B3FBF6F35B1C43F480431B0549D092B3CC
:100EA00001EBC10202EB0111401EB0FBF1F0401C4E
:100EB000C0F30B0040F4804040F400402168CA6950
:100EC0004CF6FF739A431043C861D4E907100143FD
:100ED0002068026822F0C00211430160D4E90301D6
:100EE00001432068826848F2FF339A4311438160CE
:100EF000D4E9050108432168CA6822F0FF021043C3
:100F0000C86001E00EE016E02068016841F00101D0
:100F100001602564202084F83D00256384F83E505C
:100F2000002070BD01EB4106431EB3FBF6F35B1CD2
:100F3000B3E70120C2E701EB4101401EB0FBF1F035
:100F4000401CC0F30B00B7E7A086010080841E00A0
:100F500000093D0040420F002DE9FF4F83B09A4643
:100F6000DDE9119793460446DDF84080FFF72AFF3C
:100F7000054694F83D0020287FD1192301224049DD
:100F80002046009501F01CFA002876D194F83C0028
:100F9000012872D0012084F83C0020680168C9074C
:100FA00003D1016841F0010101602068016821F46A
:100FB00000610160212084F83D00402084F83E005B
:100FC00000262664C4F82480A4F82A90608D208529
:100FD0002C48E062CDE9007553465A4620460499F4
:100FE00001F074F970B930E02A463946204601F024
:100FF00066FA58B1206C042804D12068016841F4D5
:1010000000710160012007B0BDE8F08F606A2168BF
:1010100000780861606A401C6062218D491E89B2B7
:101020002185628D521E628522685369DB435B070E
:101030000BD469B100781061606A401C6062208D39
:10104000401E2085608D401E6085208D0028CBD1FC
:101050002A463946204601F08DF90028CAD154F8B5
:101060003D0B016841F400710160202004F81E0965
:10107000E67766770020C6E7FFE70220C3E70000B7
:10108000020010000000FFFF10B586B000210091A3
:1010900001910291039100681349884222D1134CB7
:1010A000A06940F00800A061A069694600F008004E
:1010B00004904FF4407000901220019003200390A0
:1010C0000B48FFF77DFD0B48416841F0E06141F0BE
:1010D00002014160E06940F40010E061E06900F461
:1010E0000010049006B010BD0054004000100240F3
:1010F000000C014000000140024881680278114460
:101100008160704730020020074810B5016841F047
:1011100010010160032000F075F80F2000F006F8C0
:1011200000F024F8002010BD0020024070B50D4DE5
:1011300004464FF47A712878B1FBF0F00A49096847
:10114000B1FBF0F000F0ECFA48B9102C07D2002205
:101150002146501E00F036F800206C6070BD012062
:1011600070BD0000300200203C0200200C4808B591
:10117000816941F001018161816901F00101009102
:10118000C16941F08051C161C06900F08050009098
:101190000448416821F0E06141F00071416008BD00
:1011A0000010024000000140002809DB00F01F028F
:1011B000012191404009800000F1E020C0F80011B9
:1011C00070470000F0B40E4B1B680C46C3F30223BB
:1011D000C3F10705042D00D90425191D072901D2E3
:1011E000002300E0DB1E012606FA05F1491E21401E
:1011F00099409E40761E16403143F0BC02F0D9B8AB
:101200000CED00E0064900F0070208684FF6FF0306
:10121000184040EA0220034A10430860704700006B
:101220000CED00E00000FA052DE9F0470F4605003F
:1012300061D0434E306800F00700B84209D23068F0
:1012400020F0070038433060306800F00700B842F3
:1012500051D128683B4C810712D5400703D56068FF
:1012600040F4E06060602878000703D5606840F4CF
:10127000605060606068A96820F0F000084360601A
:101280002878C00728D06868012810D02168022873
:1012900010D0890700292EDA616821F0030101438B
:1012A0006160FFF78FFD804641F288390DE02168CB
:1012B0008903EFE78901EDE7FFF784FDA0EB080163
:1012C000494502D90320BDE8F0876068696800F0ED
:1012D0000C00B0EB810FEFD1306800F00700B8428E
:1012E0000BD9306820F0070038433060306800F0D8
:1012F0000700B84201D00120E5E72878400705D56E
:101300006068E96820F4E0600843606028780007BE
:1013100006D56068296920F4605040EAC100606029
:1013200000F038F86168084AC1F30311515CC84005
:101330000649086006480068FFF7F8FE0020C2E78B
:101340000020024000100240505B00083C020020D8
:10135000340200200448054900684968044AC1F382
:101360000221515CC84070473C020020001002403E
:10137000605B00080448054900684968044AC1F3F5
:10138000C221515CC84070473C020020001002405E
:10139000605B000812A185B00FC98DE80F0014A092
:1013A000144A006804905168134801F00C03042BA0
:1013B00010D0082B0ED1C1F38343C9031DF80300DD
:1013C0000AD5516804AAC1F34041515C0A4A50430E
:1013D000B0FBF1F005B0704708494843FAE7000058
:1013E00002030405060708090A0B0C0D0E0F101066
:1013F000010200000010024000127A0000093D00C6
:101400002DE9F84F040070D02078C04DC00749D0B6
:101410006868C0F38100012807D06868C0F38100C4
:10142000022809D16868C00306D52868800339D529
:1014300060680028E7D035E06068B0F5803F0BD0E9
:1014400010B1B0F5A02F11D0286820F480302860AA
:10145000286820F4802002E0286840F4803028606A
:10146000606890B1FFF7AEFC06460AE0286840F4D9
:1014700080202860F0E700BFFFF7A4FC801B6428F1
:1014800073D828688003F7D50CE0FFF79BFC06466D
:1014900005E000BFFFF796FC801B6428F0D82868A1
:1014A0008003F7D420789A4E80074FF001094FF05F
:1014B000000839D5686810F00C0F07D06868C0F3D1
:1014C0008100022809D16868C00306D42868800713
:1014D00014D52069012808D110E02069B0B1C6F800
:1014E0000090FFF76FFC074605E00AE1FFF76AFC92
:1014F000C01B0228C4D828688007F7D5286861690E
:1015000020F0F80040EAC10028600DE0C6F8008035
:10151000FFF758FC074604E0FFF754FCC01B022805
:1015200023D828688007F7D4207800072CD579487D
:10153000A169D9B1C0F80090FFF744FC074604E068
:10154000FFF740FCC01B02280FD8686A8007F7D558
:1015500071484FF4FA510068B0FBF1F0009000BF01
:101560000098411E0091FAD20EE080E0C0F80080A1
:10157000FFF728FC074604E0FFF724FCC01B022805
:1015800075D8686A8007F7D42078400760D5E86985
:101590000027C00008D4E86940F08050E861E8699D
:1015A000012700F0805000905C480168C90513D401
:1015B0000168834641F480710160FFF703FC8246B5
:1015C00006E000BFFFF7FEFBA0EB0A0064284ED840
:1015D000DBF80000C005F5D5E06801280AD008B1A5
:1015E000052813D0286A20F001002862286A20F01C
:1015F000040002E0286A40F001002862E06841F23D
:10160000883B98B1FFF7DEFB82460BE0286A40F08A
:1016100004002862EEE700BFFFF7D4FBA0EB0A014D
:1016200059455AD8286A8007F6D50CE0FFF7CAFB5F
:10163000824605E0FFF7C6FBA0EB0A0159454CD8EE
:10164000286A8007F6D41FB1E86920F08050E8616D
:10165000E06988B36968C1F38101022944D0022896
:10166000C6F8608004D0FFF7ADFB044638E034E0F4
:10167000FFF7A8FB074604E0FFF7A4FBC01B022806
:101680002BD828688001F7D4206AB0F5803F05D1B7
:101690006868A16820F4003008436860D4E9080154
:1016A0000843696821F4741108436860C6F86090C3
:1016B000FFF788FB044606E025E000BFFFF782FB4A
:1016C000001B022809D828688001F7D51BE000BF5D
:1016D000FFF778FB001B022802D90320BDE8F88F32
:1016E00028688001F4D40EE00128F7D06868226AE7
:1016F00000F48031914204D1616A00F47010884294
:1017000001D00120EAE70020E8E7000000100240D5
:1017100000004242800442423C020020007000402F
:1017200010B5401EB0F1807F01D3012010BD4FF0F5
:10173000E02460610F21601701F03BFE0020A061F2
:1017400007202061002010BD7047704770B590F8E9
:101750003C20012A26D0012480F83C40022280F857
:101760003D2003685A689D6822F070060A6832437B
:101770005A600D4B02689A4208D0B2F1804F05D0F2
:101780000A4B9A4202D00A4B9A4204D1496825F08A
:1017900080031943916080F83D40002180F83C109F
:1017A000084670BD022070BD002C014000040040BE
:1017B0000008004010B5040003D094F83D0010B1BB
:1017C00007E0012010BD002084F83C00204600F016
:1017D0001FF8022084F83D00211D206801F052FC12
:1017E000012084F8460084F83E0084F83F0084F825
:1017F000400084F8410084F8420084F8430084F8F3
:10180000440084F8450084F83D00002010BD00002D
:1018100008B5274A0168274891420ED1816941F4F1
:10182000006181618069002200F400600090022163
:101830001920FFF7C7FC192034E0B1F1804F11D017
:101840001D4A91421DD1C16941F00201C161C069C7
:10185000002200F00200009002211D20FFF7B2FCE0
:101860001D201FE0C16941F00101C161C069002272
:1018700000F00100009002211C20FFF7A3FC1C20B7
:1018800010E00E4A914211D1C16941F00401C161D9
:10189000C069002200F00400009002211E20FFF722
:1018A00091FC1E20BDE80840FFF77EBC08BD00008B
:1018B000002C0140001002400004004000080040DD
:1018C00090F83D10012901D001207047022180F8D5
:1018D0003D100168CA6842F00102CA6000680B4905
:1018E000884208D0B0F1804F05D00949884202D023
:1018F0000849884204D1816801F00701062903D014
:10190000016841F00101016000207047002C014096
:10191000000400400008004070B5044690F83C0008
:10192000012817D0012584F83C50022084F83D009E
:101930002068826822F0770222F47F428260086881
:10194000502830D00DDC20284DD005DC98B310286D
:101950003BD148E0022070BD302844D0402834D12B
:1019600039E0602828D0702806D0B0F5805F2CD0F0
:10197000B0F5005F29D10AE0CB68D1E901212068E8
:1019800001F0B6FB2068816841F0770109E0CB687F
:10199000D1E90121206801F0ABFB2068816841F4A6
:1019A0008041816011E0CA684968206801F0B2FB9B
:1019B0005021206807E016E0CA684968206801F0F5
:1019C000BAFB6021206801F09DFB84F83D500020A7
:1019D00084F83C0070BDCA684968206801F09AFB31
:1019E00040212068EFE7226801461046EBE7704788
:1019F00070B50446006801694FF00005C9438907C6
:101A000015D4C168C943890711D4E91E01610120B9
:101A10002077206880698007204602D0FFF7E7FF23
:101A200004E000F098F8204600F096F8257720684A
:101A30000169C943490717D4C168C943490713D489
:101A40006FF004010161022020772068806910F4A2
:101A5000407F204602D0FFF7CAFF04E000F07BF889
:101A6000204600F079F8257720680169C943090705
:101A700016D4C168C943090712D46FF00801016187
:101A8000042020772068C0698007204602D0FFF735
:101A9000AEFF04E000F05FF8204600F05DF8257727
:101AA00020680169C943C90617D4C168C943C9067A
:101AB00013D46FF010010161082020772068C069FD
:101AC00010F4407F204602D0FFF791FF04E000F0C1
:101AD00042F8204600F040F8257720680169C943A4
:101AE000C90708D1C168C943C90704D1891E01616A
:101AF000204600F033F820680169C943090609D47B
:101B0000C168C943090605D46FF080010161204610
:101B1000FFF71AFE20680169C943490609D4C16864
:101B2000C943490605D46FF040010161204600F029
:101B300089F820680169C94389060BD4C168C94383
:101B4000890607D46FF0200101612046BDE870408E
:101B5000FFF7FBBD70BD704770470000F0B501682E
:101B60000025334BB1F1804F05D1596808315960D8
:101B7000352900DB5D602F4A01682F4E0124914218
:101B80003AD134707470A6F5FC7134710A69012A77
:101B900001D012B130E00D612EE0254A0C61083A07
:101BA00011883B2905D0491C118051883C2905D05A
:101BB00008E015805188491C5180F6E755809188CE
:101BC000491C91801C4997887C39182F03D1958036
:101BD0004A78521C4A704A781F2A06D14C700A78FB
:101BE000521C0A700A7A521C0A720A780D2A03D112
:101BF0000C704A68521C4A60104A0168914210D128
:101C00001968891D1960792900DB1D600A4970393E
:101C10008A7932B10A78052A01D30C7001E0521C8E
:101C20000A7000680649884200D1B471F0BD000016
:101C300034000020002C014010020020000400406D
:101C4000000800407047704770470000F8B5026810
:101C500004461068D168536910F00F0F4FF000056B
:101C600053D003F0010601F4907737435FD0C207E9
:101C700005D0CA0503D5226C42F001022264420756
:101C800005D5DA0703D0226C42F0020222648207F3
:101C900005D5DA0703D0226C42F004022264020761
:101CA00007D501F02002324303D0226C42F0080233
:101CB0002264226C002A34D0800604D5880602D51E
:101CC000204601F06AFA20684069216CC0F3801058
:101CD000090700D430B3204601F047FA2068416973
:101CE00049061BD5416921F040014161A06BA8B1B3
:101CF00058494163A06BFEF7FDFD002811D0A06B91
:101D0000416B01B0BDE8F040084783060FD58B0654
:101D10000DD52046BDE8F84001F03FBA2046FFF758
:101D200093FFF8BD2046FFF78FFF2564F8BD266BB3
:101D30002023012E52D1C60650D5CE064ED51068AE
:101D400050680090506940062AD5A16B0868406829
:101D50000004000CEAD0A68D8642E7D9E0858869A8
:101D6000202818D0D06820F48070D06020684169A5
:101D700021F0010141612068416921F04001416188
:101D800084F83E3025632068C16821F01001C160ED
:101D9000A06BFEF78BFDA08DE18D401A81B219E09A
:101DA000A08DE18D401A81B2E08D0028BED00029BF
:101DB000BCD0D06820F49070D0602068426922F0D6
:101DC0000102426184F83E3025632068C26822F037
:101DD0001002C2602046FFF736FFF8BD05062BD57E
:101DE0000D0629D594F83D002128F6D1A068B0F55C
:101DF000805F01D12069B0B1206A411C2162216855
:101E000000784860E08C401E0004000CE084E4D1BF
:101E10002068C16821F08001C1602068C16841F07C
:101E20004001C160F8BD206A0088C0F3080050601E
:101E3000206A801C2062E5E74006F3D54806F1D50C
:101E4000D168204621F04001D16084F83D3000F097
:101E500052F9F8BD5B31000870B5040004D094F865
:101E60003D00002510B106E0012070BD84F83C5013
:101E7000204600F023F8242084F83D002068C16843
:101E800021F40051C160204601F0E2F920680169A7
:101E900021F4904101612068416921F02A014161EA
:101EA0002068C16841F40051C1602564202084F895
:101EB0003D0084F83E00002070BD0000F0B585B004
:101EC000002400940194029403940368384F022084
:101ED00038490322384D4602BB4228D18B6943F46E
:101EE00080438B618B6903F4804304938B6943F0D7
:101EF00004038B618969039201F0040104910102DA
:101F0000CDE9001069462846FEF75AFECDE9006487
:101F1000694628460294FEF753FE0022114625200A
:101F2000FFF750F92520FFF73FF905B0F0BD234F2B
:101F3000BB4219D1CB6943F40033CB61CB6903F4C5
:101F4000003304938B6943F004038B618969039226
:101F500001F0040104910421CDE9001069462846EE
:101F6000FEF72EFE08201BE0154DAB42DDD1CB69FC
:101F700043F48023CB61CB6903F4802304938B6902
:101F800043F008038B6189690E4D01F00801CDE92A
:101F90000321CDE9006069462846FEF711FEE814EA
:101FA000CDE90004694628460294FEF709FEBCE725
:101FB0000038014000100240000801400044004089
:101FC00000480040000C014090F83E30202B0ED11C
:101FD00059B152B190F83C30012B08D0012380F860
:101FE0003C300023036301F08FB9012070470220C9
:101FF0007047000010B500680F49104C884213D19B
:1020000004F293110120C8702278201DE178115448
:102010002078401CC0B22070C82805D9002121704A
:10202000C821201DFEF7D2F90122E11CBDE81040B5
:102030000348FFF7C9BF0000003801407D000020C1
:10204000680B00202DE9F843044690F83D001F4638
:1020500016460D4620284CD1C5B1BEB194F83C00BF
:10206000012846D0012084F83C004FF00008C4F855
:102070004080212084F83D00FEF7A4FEA68481461E
:10208000E684A068B0F5805F03D004E00120BDE8DD
:10209000F883206928B12E465FF0000584F83C8063
:1020A0000EE00026FAE78021204601F048F9A0B9A9
:1020B000AEB116F8010B21684860E08C401EE08448
:1020C000E08C4B464FF0000200970028EBD14FF018
:1020D0004001204601F033F930B10320D7E735F84D
:1020E000020BC0F30800E6E7202084F83D00002042
:1020F000CDE70220CBE77047FEE700005FF000016C
:1021000050F821209AB1012915D0022926D003299F
:1021100037D0042948D0052959D006296AD0072983
:102120007FD0082972D0092971D0002970D0491CAC
:102130000929E5DD70474168012907D0022907D048
:10214000032907D0042907D00221D9E7412070478D
:102150004220704743207047312070478168012931
:1021600007D0022907D0032907D0042907D003216B
:10217000C6E744207047452070474620704732200C
:102180007047C168012907D0022907D0032907D069
:10219000042907D00421B3E747207047482070473F
:1021A00049207047332070470169012907D002296F
:1021B00007D0032907D0042907D00521A0E74A202A
:1021C00070474B2070474C2070473420704741695E
:1021D000012907D0022907D0032907D0042907D0F5
:1021E00006218DE74D2070474E2070474F207047E5
:1021F00035207047816901290BD002290BD00329B2
:102200000BD004290BD007217AE70AE01CE02EE06E
:102210003EE05020704751207047522070473620D2
:102220007047C169012907D0022907D0032907D0C7
:10223000042907D0082163E75320704754207047D2
:102240005520704737207047016A012907D00229BD
:1022500007D0032907D0042907D0092150E75620C9
:102260007047572070475820704738207047406AA1
:10227000012807D0022807D0032807D00428F5D169
:1022800039207047592070475A20704722207047E4
:102290000078C00701D030207047202070470168C7
:1022A0004A69D24352050FD46FF480624A6100211B
:1022B00040F8301F202242738173026942F0040209
:1022C0000261017301207047002070472DE9F84337
:1022D000044600680D46DDE90897016898461646F1
:1022E00041F4807101604B4600224FF001112046FD
:1022F000009700F065F848B120680068C00502D575
:102300004FF4007020640320BDE8F883216805F0D5
:10231000FE0008613B464A461549204600F084F815
:1023200088B920684169806900903A46494620464C
:1023300000F0C5F848B1206C042804D12068016879
:1023400041F4007101600120DEE7F5B2B8F1010F40
:1023500009D02168300A08613A464946204600F013
:10236000AEF80028E7D1206805610020CCE7000026
:102370000200010070B516460D4604460DE02046E9
:10238000FFF78DFF08B1012070BD681C05D0FEF776
:1023900019FD801BA84207D835B120684069C043A9
:1023A0004007ECD4002070BD002044F8300F2021FD
:1023B0006173A073216941F0200121612073E2E77C
:1023C0002DE9F0471E4690460D460446C1F30747E7
:1023D000DDF8209008E0701C06D0FEF7F3FCA0EBBF
:1023E0000900B0420FD876B12068012F18D080695B
:1023F00025EA00000004000C14D000214145EAD079
:102400000020BDE8F087002044F8300F20216173E0
:10241000A073216941F02001216120730120F0E7C0
:102420004069E5E70121E9E72DE9F0479A46914641
:102430000E46044600254FF02008C1F3074725E06B
:1024400020684069C043400514D42068016841F405
:102450000071016021686FF480604861256384F831
:102460003D8084F83E50206C40F00400206484F8E5
:102470003C501FE0B9F1FF3F08D0FEF7A3FCA0EBF2
:102480000A0149450CD8B9F1000F09D02068012F85
:1024900013D0806926EA00000004000C0BD0CFE7BF
:1024A00044F8305F84F80D80A573206940F0200067
:1024B000206125730120BDE8F0874069EAE770B527
:1024C00016460D4604460DE02046FFF7E8FE08B12B
:1024D000012070BD681C05D0FEF774FC801BA8426B
:1024E00007D835B120684069C0430006ECD400200D
:1024F00070BD002044F8300F20216173A073216962
:1025000041F0200121612073E2E700002DE9F04154
:1025100033480026DFF8CC80C6703446A0F293150D
:10252000A0F5FC7728190179522902D02B2916D061
:1025300051E0417949294ED181794E294BD1C07959
:10254000472848D14FF400512748FEF72EFCC821F8
:10255000281DFDF73BFF092078802E703BE0417974
:10256000432938D181794D2935D1C079542832D1C8
:10257000302188F801104046002162182A4443188F
:10258000927F491C1A730729F7DD012162182A443A
:102590004318527B491C5A700A29F7DD0021621842
:1025A0002A44431892F82720491C9A770429F6DD1B
:1025B000002106E0A2F120035E2B01D843181A7512
:1025C000491C62182A4492F83520002AF2D10E21C3
:1025D000798088F80060641C3C2CA3DDBDE8F081A4
:1025E000100200204C060020001001401CB51F48BE
:1025F0000178002938D000210170703841780A290B
:102600002CD0002001F0B2FF194882784178CDE942
:10261000001203780E3002888188408801F06EF83D
:10262000144C15A23221606800900020236801F04C
:10263000CBFD124812A241680091036814211E20AC
:1026400001F0C2FD606800900FA23221782023685B
:1026500001F0BAFDBDE81C4002F004B81021417041
:1026600003490220891F48801CBD00001002002081
:102670001E0000200800002048000000100000207C
:10268000536E616B650000004E0000001CB51F48D2
:102690000178002938D000210170703841780A296A
:1026A0002CD0002001F062FF194882784178CDE9F2
:1026B000001203780E3002888188408801F01EF8ED
:1026C000144C15A23221606800900020236801F0AC
:1026D0007BFD124812A241680091036814211E205C
:1026E00001F072FD606800900FA23221782023680B
:1026F00001F06AFDBDE81C4001F0B4BF102141703B
:1027000003490420891F48801CBD000010020020DE
:102710001E000020080000204800000010000020DB
:1027200054494D45000000004E0000001CB51E48F5
:102730000178002937D000210170084601F016FF0A
:102740001A4882784178CDE9001203780E30028869
:102750008188408800F0D2FF154C16A232216068B3
:1027600000900020236801F02FFD6068009012A205
:1027700032217820236801F027FD104810A241681B
:10278000009114210368084601F01EFD01F06AFF64
:102790000548703841780A2905D1A0F5C472062190
:1027A0005180102141701CBD100200201E0000202D
:1027B000080000204D0000004E0000001000002026
:1027C00043414C454E444552000000001CB51E4894
:1027D0000178002937D000210170084601F0C6FEBB
:1027E0001A4882784178CDE9001203780E300288C9
:1027F0008188408800F082FF154C16A23221606863
:1028000000900020236801F0DFFC6068009012A2B5
:1028100032217820236801F0D7FC104810A24168CB
:10282000009103681421282001F0CEFC01F01AFF6A
:102830000548703841780A2905D1A0F5C4720821ED
:102840005180102141701CBD100200201E0000208C
:10285000080000204D0000004E0000001000002085
:1028600043414C4C000000002DE9F04186B00026A9
:102870003F480096019602960396816941F0100147
:102880008161816901F010010491816941F02001A9
:102890008161816901F020010491816941F00401A5
:1028A0008161816901F004010491816941F00801AD
:1028B000816180692F4F00F008004FF400540490AC
:1028C000002221463846FEF778FADFF8AC80002275
:1028D00040F6F2014046FEF770FA0094022501240A
:1028E0000395CDE9014669463846FEF769F9F220BD
:1028F00003958DE8510069464046FEF761F943F2C1
:10290000030000901D48CDE901051D4E6946304683
:10291000FEF756F94FF4404000901A48CDE9010403
:1029200069463046FEF74CF9E002CDE900046946FD
:102930004046CDE90245FEF743F900220121062079
:10294000FEF740FC0620FEF72FFC002201210720A5
:10295000FEF738FC0720FEF727FC00220121282083
:10296000FEF730FC2820FEF71FFC06B0BDE8F08122
:10297000001002400010014000080140000031102A
:10298000000C0140000011100D4810B50B4901600A
:102990000C49416000214FF480428160C0E903127C
:1029A00041618161C1610162FEF712FA002803D022
:1029B000BDE81040FDF7F2BE10BD0000005400401D
:1029C000F4090020A086010010B586B00024174845
:1029D00000940194029403940494134905940160B3
:1029E00041F63F71C0E901140911C0E903144461C3
:1029F0008461FEF7DFFE08B1FDF7D0FE4FF4805092
:102A0000009069460948FEF787FF08B1FDF7C6FE4A
:102A1000049404A905480594FEF798FE002801D007
:102A2000FDF7BCFE06B010BD002C0140480A002096
:102A300010B586B0002416480094019402940394C3
:102A400004944FF080410594016041F63F71C0E964
:102A500001141321C0E903148461FEF7ABFE08B131
:102A6000FDF79CFE4FF48050009069460848FEF741
:102A700053FF08B1FDF792FE049404A9044805949D
:102A8000FEF764FE002801D0FDF788FE06B010BDF9
:102A9000900A002010B586B00024174800940194D5
:102AA00002940394049413490594016041F63F7124
:102AB000C0E901140A21C0E903148461FEF77AFE1B
:102AC00008B1FDF76BFE4FF48050009069460A484C
:102AD000FEF722FF08B1FDF761FE049404A9064841
:102AE0000594FEF733FE002801D0FDF757FE06B02F
:102AF00010BD000000040040D80A002010B586B0C8
:102B000000241748009401940294039404941349F8
:102B10000594016041F63F71C0E901144FF4FA7168
:102B2000C0E903148461FEF745FE08B1FDF736FEE7
:102B30004FF48050009069460948FEF7EDFE08B159
:102B4000FDF72CFE049404A905480594FEF7FEFD4C
:102B5000002801D0FDF722FE06B010BD000800409D
:102B6000200B00200C4810B50A4901604FF41651A3
:102B70004160002181600C22C160C0E904128161C2
:102B8000C161FFF769F9002803D0BDE81040FDF7E7
:102B900005BE10BD00380140680B00200C4810B580
:102BA0000A4901604FF416514160002181600C22F6
:102BB000C160C0E904128161C161FFF74DF90028CD
:102BC00003D0BDE81040FDF7E9BD10BD0044004052
:102BD000AC0B00200C4810B50A4901604FF41651A7
:102BE0004160002181600C22C160C0E90412816152
:102BF000C161FFF731F9002803D0BDE81040FDF7AF
:102C0000CDBD10BD00480040F00B0020FEE7FEE700
:102C100010B50B4C002210212046FEF7CEF8002202
:102C200020212046FEF7C9F8002240212046FEF769
:102C3000C4F820460022BDE810408021FEF7BDB850
:102C4000000801401CB515480178002925D0002155
:102C50000170084601F08AFC114882784178CDE97C
:102C6000001203780E3002888188408800F0A8FDA9
:102C70000C4C0DA23221606800900020236801F006
:102C8000A3FA6068009009A232217820236801F03D
:102C90009BFABDE81C4001F0E5BC1CBD1002002001
:102CA0001E00002008000020430000004D0000002E
:102CB0007047000010B5064C606808B900F0A2FF2C
:102CC0006068012803D1BDE8104000F073BE10BD5C
:102CD0001C0200207047FEF70FBA30B58FB02821D4
:102CE0006846FDF795FB14210AA8FDF791FB012525
:102CF0002804CDE90050002407946846FEF780FBC5
:102D000008B172B6FEE70F20CDE90A054FF48060E6
:102D1000CDE90C4000210AA80E94FEF785FA0028A0
:102D200001D072B6FEE70FB030BD70470148FEF724
:102D30005FBE0000480A00200148FEF759BE0000AF
:102D4000900A00200148FEF753BE0000D80A002078
:102D50000148FEF74DBE0000200B00202DE9FC5F6E
:102D6000B7480178002979D00025A0F170060570D8
:102D700070781027B34C4FF001080C2806D00D28AE
:102D800007D00E2807D00F2809D00DE084F80A805C
:102D900003E0022000E00320A072777004E084F8D2
:102DA0000B80777084F80A80002001F0DFFBDFF8E9
:102DB000989209F10E0A99F8022099F80110CDE9CC
:102DC000001299F80030BAF80020BAF80410BAF8E6
:102DD000020001F009FA9B4C227AA179E07900F017
:102DE000C3FBA07ADFF864B210BBDBF804000090EC
:102DF0005C4697A214215020DBF8003001F0E4F982
:102E00006068009094A21E215020236801F0DCF934
:102E10006068009092A228215020236801F0D4F924
:102E20006068009090A209214B20236801F0CCF942
:102E3000844CA07A012852D1DBF8041000918DA2B5
:102E400028210020DBF8003001F0BEF97078092855
:102E50000DD8617A19B1012906D008E0EDE02070A3
:102E6000777084F8098002E060707770657221786D
:102E7000607801EB810100EB4100C1B2A17117291B
:102E800004D8227AE07900F06FFB01E025706570CC
:102E900070780A2802D00B281ED01FE0E07AA179B2
:102EA00088B189F80010E17989F80110217A89F850
:102EB0000210E5726570A570E57025716571257069
:102EC000A57265720AE0AAF80410E179AAF8021066
:102ED000217AAAF80010EDE7257065707770A07A66
:102EE000022851D1DBF80410009164A228210020AF
:102EF000DBF8003001F068F9707809280CD8617AA5
:102F000011B1012905D007E0A070777084F809801D
:102F100002E0E07077706572A178E07801EB8101E2
:102F200000EB4100C0B2E0713B2804D8227AA179BD
:102F300000F01AFB01E0A570E57070780A2802D055
:102F40000B281ED01FE0E07AA17988B189F8001023
:102F5000E17989F80110217A89F80210E57265702B
:102F6000A570E570257165712570A57265720AE01E
:102F7000AAF80410E179AAF80210217AAAF8001040
:102F8000EDE7A570E5707770A07A032851D1DBF8E2
:102F9000041000913AA228210020DBF8003001F053
:102FA00013F9707809280CD8617A11B1012905D07C
:102FB00007E02071777084F8098002E06071777013
:102FC00065722179607901EB810100EB4100C2B2A9
:102FD00022723B2A04D8A179E07900F0C5FA01E019
:102FE0002571657170780A2802D00B281ED01FE069
:102FF000E07AA17988B189F80010E17989F80110A7
:10300000217A89F80210E5726570A570E570257166
:1030100065712570A57265720AE0AAF80410E1795D
:10302000AAF80210217AAAF80010EDE7257165715F
:103030007770BDE8FC5F01F015BBBDE8FC9F0000A8
:10304000100200206F0600201E0000200800002053
:10305000463120484F5552004632204D494E00001F
:103060004633205345430000463420414C52414DE5
:1030700000000000484F5552000000004D494E002E
:1030800053454300F0B50268164B174C174D4FF0EF
:103090008047984205D0B84203D0A04201D0A84250
:1030A00003D122F070064A683243984205D0B842F4
:1030B00003D0A04201D0A84203D122F44074CA68D0
:1030C00022434C6922F08002224302608A68C26275
:1030D0000A688262984201D1096901630121416154
:1030E000F0BD0000002C014000040040000800403A
:1030F00010B5846842EA032224F47F440A43224341
:10310000826010BD826822F070020A4342F007011B
:103110008160704710B5036A046A24F001040462F8
:10312000846924F0F00444EA021423F00A020A43FA
:103130008461026210BD10B5036A23F010030362BC
:103140008369046A23F4704343EA023224F0A00343
:1031500043EA01118261016210BD10B5406A00218D
:10316000C185C184FEF770FD10BD0168CA6822F4F4
:103170009072CA6001684A6922F001024A61016BDB
:10318000012904D10168CA6822F01002CA60202116
:1031900080F83E1000210163704708B590F83E109A
:1031A000222901D0022008BD82684FF480539A4240
:1031B00001D1016921B1816A9A421BD04AB10AE06A
:1031C0000268816A5268C2F308020A80816A891C17
:1031D00008E0026972B10268526802F07F020A7068
:1031E000816A491C8162C18D491E0904090CC1858F
:1031F00003D019E002685268F1E70168CA6822F05A
:103200002002CA600168CA6822F48072CA6001683C
:103210004A6922F001024A61202180F83E10016BC8
:10322000012903D0FEF7E6FE002008BD002101635E
:103230000168CA6822F01002CA6001680A68D206F2
:1032400002D50A6849680091818DFEF7FCFCEBE726
:1032500070B5044600680169E26821F440511143E9
:1032600001612169A0680843616908432168CA684F
:1032700041F20C639A430243CA6020684169A26923
:1032800021F44071114341611E492068884202D1F6
:10329000FEF770F801E0FEF75DF800EBC00101EB0E
:1032A0000012606864218000B2FBF0F3B3FBF1F31D
:1032B0006FF018067343B2FBF0F5B2FBF0F605EBC6
:1032C0008305322303EB0515B5FBF1F5B6FBF1F6EB
:1032D00005F0F00505EB0615B2FBF0F6B2FBF0F0D9
:1032E000B0FBF1F06FF01802504306EB800003EBE7
:1032F0000010B0FBF1F0216800F00F002844886056
:1033000070BD00000038014081628285C2850021C5
:103310000164222280F83E2080F83C100168CA68CF
:1033200042F48072CA6001684A6942F001024A614F
:103330000068C16841F02001C160002070472DE99C
:10334000F041984617460E460446069D1DE0681C4F
:103350001BD02DB1FDF736FDA0EB0800A84214D913
:103360002068C16821F4D071C1602068416921F0F2
:1033700001014161202084F83D0084F83E000020D6
:1033800084F83C000320BDE8F0812068006836EA3C
:10339000000004D00020B842D9D00020F3E701207B
:1033A000F9E700000148FEF751BC0000680B00205F
:1033B000FEE70907090E002804DB00F1E02080F891
:1033C0000014704700F00F0000F1E02080F8141D99
:1033D0007047000070B50D4606468AB014461421A9
:1033E000002001F039F90A2295FBF2F028B996FB8A
:1033F000F2F010B994FBF2F030B195FBF2F058B155
:1034000096FBF2F028B107E033462A4635A1009436
:103410005CE094FBF2F018B195FBF2F028B10AE001
:1034200033462A4633A1009450E096FBF2F010B1E7
:1034300094FBF2F060B195FBF2F028B196FBF2F04C
:1034400010B194FBF2F040B195FBF2F050B114E0F2
:1034500033462A462BA1009438E033462A462DA154
:10346000009433E096FBF2F038B994FBF2F020B10F
:1034700033462A462BA1009428E095FBF2F050B188
:1034800096FBF2F038B994FBF2F020B133462A46AD
:1034900028A100941AE095FBF2F050B996FBF2F0E7
:1034A00038B194FBF2F020B133462A4625A10094AE
:1034B0000CE095FBF2F060B196FBF2F048B194FBA2
:1034C000F2F030B133462A4622A1009401A8FCF75D
:1034D000ABFE24480123D0E9001201A801F04EF907
:1034E0000AB070BD302564203A20302564203A208F
:1034F000302564002564203A20302564203A2030AD
:1035000025640000302564203A202564203A2030CC
:10351000256400002564203A202564203A203025C7
:1035200064000000302564203A20302564203A20D1
:10353000256400002564203A20302564203A2025A7
:1035400064000000302564203A202564203A2025BC
:10355000640000002564203A202564203A20256478
:10356000000000000800002070B50D4606468AB035
:1035700014461E21002001F06FF80A2295FBF2F09C
:1035800028B996FBF2F010B994FBF2F030B195FB3C
:10359000F2F058B196FBF2F028B107E033462A4624
:1035A00035A100945CE094FBF2F018B195FBF2F0C9
:1035B00028B10AE033462A4633A1009450E096FB36
:1035C000F2F010B194FBF2F060B195FBF2F028B18B
:1035D00096FBF2F010B194FBF2F040B195FBF2F0E3
:1035E00050B114E033462A462BA1009438E033460C
:1035F0002A462DA1009433E096FBF2F038B994FBF3
:10360000F2F020B133462A462BA1009428E095FB26
:10361000F2F050B196FBF2F038B994FBF2F020B121
:1036200033462A4628A100941AE095FBF2F050B9DF
:1036300096FBF2F038B194FBF2F020B133462A4603
:1036400025A100940CE095FBF2F060B196FBF2F03E
:1036500048B194FBF2F030B133462A4622A10094DF
:1036600001A8FCF7E1FD24480123D0E9001201A8DC
:1036700001F084F80AB070BD302564203A2030256E
:1036800064203A20302564002564203A20302564E7
:10369000203A203025640000302564203A2025643B
:1036A000203A2030256400002564203A202564203B
:1036B0003A20302564000000302564203A2030256F
:1036C00064203A20256400002564203A20302564D7
:1036D000203A202564000000302564203A2025642B
:1036E000203A2025640000002564203A202564202B
:1036F0003A202564000000000800002030B589B0A1
:1037000005460C460C98A34207D1A84205D122B920
:10371000012202211D48FDF750FB0021084600F060
:103720009BFF0A2094FBF0F111B995FBF0F149B130
:1037300094FBF0F111B195FBF0F139B194FBF0F18C
:1037400041B10EE02B46224611A113E02B46224642
:1037500012A10FE095FBF0F119B12B46224612A100
:1037600008E094FBF0F141B195FBF0F028B12B4655
:10377000224610A16846FCF757FD10480123D0E906
:103780000012684600F0FAFF09B030BD00080140A1
:10379000302564203A203025640000002564203A5A
:1037A0002030256400000000302564203A20256484
:1037B000000000002564203A202564000800002055
:1037C00030B589B005460C460C98A34207D1A842F3
:1037D00005D122B9012202211D48FDF7EEFA14217C
:1037E0001A2000F039FF0A2094FBF0F111B995FB83
:1037F000F0F149B194FBF0F111B195FBF0F139B161
:1038000094FBF0F141B10EE02B46224611A113E0EA
:103810002B46224612A10FE095FBF0F119B12B4681
:10382000224612A108E094FBF0F141B195FBF0F0C3
:1038300028B12B46224610A16846FCF7F5FC10483B
:103840000123D0E90012684600F098FF09B030BDAE
:1038500000080140302564203A2030256400000033
:103860002564203A203025640000000030256420C3
:103870003A202564000000002564203A20256400D9
:10388000100000202DE9FC5FDFF80081404D00268C
:1038900008F10E0BA8F106044FF064094FF00A0A74
:1038A000002000F063FE98F8022098F80110CDE99E
:1038B000001298F80030BBF80020BBF80410BBF8E9
:1038C0000200FFF71BFF1421002000F0C5FED5E920
:1038D000001201232FA000F051FF20784F46B0FBCB
:1038E000F7F0303060702821002000F0B5FED5E9F7
:1038F000001201232AA000F041FF2821492000F0F6
:10390000ABFED5E900120123607800F0C7FE2078F5
:10391000B0FBF7F107FB11005746B0FBF7F0303072
:1039200060702821502000F097FED5E90012012395
:10393000607800F0B3FE2078B0FBF7F107FB1100D0
:10394000303060702821572000F086FED5E9001243
:103950000123607800F0A2FE4FF4AF70FDF716F877
:1039600000F080FE761C042E9ADD0120E0600F49F5
:1039700000200822C1E900020D490860486008746F
:103980002070BDE8FC5FFFF795B900001E00002025
:103990000800002047616D65204F766572000000C9
:1039A000596F75722053636F726500007C060020AA
:1039B0001C0200202DE9FC477348417800297CD087
:1039C00000214170084600F0D1FD6F4A6F4C0C3267
:1039D000A2F501751068012805D0022803D003283C
:1039E00001D004283DD1E96809E000BF04EBC10320
:1039F00053F8086D44F831605E68491EDE600029A6
:103A0000F4DC012806D0022809D003280ED00428AF
:103A100011D009E02068801D2060012003E060686B
:103A20000838606002201074012617E060680830D2
:103A300060600320F7E72068801F20600420F2E721
:103A400054F836002168884207D104EBC60061684B
:103A50004068884201D1FFF715FF761CE86886426E
:103A6000EEDD4B4E20683168884246D1606871684F
:103A7000884242D12878A6F10801401C2870A1F1A3
:103A800018000A78027009794170012780464FF0CA
:103A900014094FF0060A24E054F8371098F8002073
:103AA00091421DD104EBC70198F801004968814299
:103AB00016D10127FCF77EFB00E062E090FBF9F2F3
:103AC00009FB120000EB4000400088F80000FCF702
:103AD00071FB90FBFAF20AFB1200C00088F80100AB
:103AE0007F1CE8688742D7DD98F80010316098F8AD
:103AF00001007060E868401CE86025481E38827844
:103B00004178CDE9001203780E3002888188408820
:103B1000FFF7F4FDDFF87C801FA20020D8F8041026
:103B200000913221D8F8003000F04EFB00270DE064
:103B300004EBC700017914F8370000F08DFDD8E9D7
:103B40000012012315A000F019FE7F1CE8688742CF
:103B5000EEDB3179307800F07FFDD8E900120123E7
:103B60000EA000F00BFE00F07DFD2068782804D246
:103B70006068352801DC002803DABDE8FC47FFF760
:103B800081BEBDE8FC870000100200207C060020FA
:103B90003C000020080000204D0000002E00000026
:103BA00010B5174C012811D0022817D003281DD0BA
:103BB000042823D1012280212046FDF7FEF80022AF
:103BC00040212046BDE81040FDF7F7B80122102142
:103BD0002046FDF7F2F800228021F2E701222021A1
:103BE0002046FDF7EAF800221021EAE701224021F1
:103BF0002046FDF7E2F800222021E2E710BD000098
:103C0000000801407CB51C480178002933D0A0F1A0
:103C100070041021617000260670304600F0A6FC8A
:103C200004F17C05142100202E6000F015FD1348DE
:103C30000123D0E9001212A000F0A0FD134814A245
:103C40004168009103683221002000F0BDFAA4F51C
:103C5000C17082784178CDE9001203780E30028875
:103C600081884088FFF74AFD00F0FCFC60780A2854
:103C700001D1012068607CBD1002002010000020EE
:103C800050726565732053746172740008000020DF
:103C90004D000000FDF738FAFFF71FF8FEF7E4FDCE
:103CA000FEF772FEFEF790FEFEF75CFFFEF776FF72
:103CB000FEF790FFFEF7BCFEFEF7ECFEFEF71EFFE0
:103CC0005248FDF7FDFD5248FDF7FAFD5148FDF75A
:103CD000F7FD5148FDF7F4FD0122D1024F48FDF7F1
:103CE0006CF800F053FCFEF793FF4D4C0122E11CF1
:103CF0004C48FEF769F90520FCF748FE4FF448757B
:103D00002B46022248A14748FEF79CF92B46012288
:103D1000A11C4448FEF796F93220FCF737FE6423D5
:103D2000092242A13F48FEF78DF92B460122A11C32
:103D30003C48FEF787F93220FCF728FE6423112265
:103D40003DA13848FEF77EF92B460122A11C3548DB
:103D5000FEF778F93220FCF719FE04F2231504F27D
:103D60009316653C2878FFF71BFFF078012801D1F6
:103D7000FEF7CCFB6088F0B101281FD0022820D0CC
:103D8000032821D0042822D0052823D0062824D0B7
:103D9000072825D0082826D0092827D00A2828D087
:103DA0000B2829D00C282AD00D282BD00E28D9D1A9
:103DB00000F03CFAD6E7FEF745FFD3E7FEF716FC26
:103DC000D0E7FEF777FFCDE7FEF760FCCAE7FEF726
:103DD000C5FFC7E7FEF7AAFCC4E7FCF7F7FBC1E79E
:103DE000FEF7F4FCBEE7FCF719FCBBE7FCF7D8FCD8
:103DF000B8E700F02BF8B5E700F08EFAB2E700F074
:103E00002DF9AFE700F06EF8ACE70000480A00209B
:103E1000900A0020D80A0020200B00200008014052
:103E20007D000020680B00204154000041542B43CA
:103E30004D47463D3100000041542B434E4D493D16
:103E4000312C322C302C302C300000001CB51E4898
:103E5000017861B300210170084600F087FB1B4820
:103E600082784178CDE9001203780E30028881888B
:103E70004088FFF743FC164C16A232216068009080
:103E80000020236800F0A0F96068009012A232219F
:103E90007820236800F098F9104811A24168009139
:103EA00003681421282000F08FF900F0DBFB06489E
:103EB000703841780A2905D11021417003490B203F
:103EC000891F48801CBD0000100200201E00002039
:103ED000080000204D0000004E00000010000020EF
:103EE000534D53001CB5234840780B2813D164234D
:103EF000032221A12148FEF7A5F83220FCF746FD58
:103F00004FF4487301221E491C48FEF79BF81C49D8
:103F1000012067394880174870300178002927D080
:103F200000210170084600F021FB154861388278B5
:103F30004178CDE9001203780E30028881884088EC
:103F4000FFF7DCFB0F4C10A21421606800900020EA
:103F5000236800F039F960680090064A1421183A85
:103F60002820236800F030F9BDE81C4000F07ABB3F
:103F70001CBD0000A001002041544800680B002037
:103F80007F00002008000020520000002DE9F041D1
:103F9000234D8AB08046686800901C4616460F463E
:103FA00020A2322100202B6800F00EF93B46424649
:103FB0001DA101A80096FCF737F96868009001AAD6
:103FC00014210A202B6800F0FFF8012C0CD0022CE1
:103FD0000CD0032C0CD0042C0CD0052C0CD0062CAF
:103FE0000CD0072C0CD00FE013A10AE013A108E0BD
:103FF00013A106E014A104E014A102E015A100E061
:1040000015A101A8FCF7B2F96868009001AA1E2169
:104010000A202B6800F0D8F80AB0BDE8F081000053
:10402000080000204D0000002564202F202564207A
:104030002F2025640000000053554E004D4F4E00C8
:10404000545545530000000057454400544855520C
:104050005300000046524900534154002DE9FC47EB
:10406000544E0025A6F170043079A0B135710120BD
:1040700004EB8001401CCD600928F9DD4D4F6178CB
:1040800010203C3F0C2922D00B2928D00F2931D0F9
:104090000A2939D056E0002001236178814204EBDF
:1040A000800106D1CA68521CCA60052A02D1CB60C1
:1040B00000E0CD60401C0928EFDD70790028DDD0DC
:1040C0003C4875716438FEF719F82072D6E7E2793A
:1040D000217AD155E179491CE171607032E060705C
:1040E000257200202118401C81F834503B28F9DD4E
:1040F000E57127E0607025722E48E1793D380D5456
:10410000E079401EE0711DE060702B4800F08AF9F4
:10411000257200202118401C81F834503B28F9DD1D
:10412000DFF898904FF40068E57100224146484658
:10413000FCF743FE6420FCF729FC01224146484677
:10414000FCF73BFE3078002831D03570002000F0BD
:104150000DFA1948543882784178CDE90012037875
:104160000E30028881884088FFF7C8FA144D15A2E6
:1041700032216868009000202B6800F025F80021AB
:10418000782000F069FAD5E90012207A012300F0C6
:1041900085FAA17A607A00F05FFAD5E9001201236E
:1041A000384600F0EBFABDE8FC4700F05BBABDE82A
:1041B000FC8700001002002072000020000801406F
:1041C000080000204D00000070B51D461646C9B21B
:1041D000C0B2049C00F040FA224629463046BDE8B1
:1041E0007040012300F0CABA7CB50D460646DDE9F1
:1041F0000601CDE90001144629463046FFF77EFA54
:10420000084B09A23221586800901B680020FFF774
:10421000DBFF02B0224629463046BDE87040FFF77A
:10422000D9B80000080000204D0000001CB5274848
:104230000178002940D000210170084600F096F96D
:10424000234882784178CDE9001203780E30028845
:1042500081884088FFF752FA2821142000F0FCF9E9
:104260001C490A2000F03CF800214B2000F0F4F932
:10427000194C18480123D4E900120B3000F07EFAE3
:1042800060680090134A32211D325A202368FFF7DC
:104290009BFF606800900F4A1E21133200202368A4
:1042A000FFF792FF606800900CA232210020236883
:1042B000FFF78AFF00F0D6F90448703840780B28E1
:1042C00003D103490120891F48801CBD1002002032
:1042D0001E0000204D0600200800002042000000C3
:1042E0002DE9F0410E46054600240A4F0EE000BFBE
:1042F00004EB44004006000E142100F0ADF9D7E9AC
:104300000012305D012300F0C9F9641CAC42EFDDFE
:10431000BDE8F081080000202DE9FC413848017813
:1043200000296BD04FF0000880F80080404600F074
:104330001DF9344882784178CDE9001203780E30B7
:10434000028881884088FFF7D9F92F4E2FA23221A9
:104350007068009000203368FFF736FF70680090A7
:104360002BA2142100203368FFF72EFF244A1027C8
:10437000703AA2F5AE74507804F12E0509280FD8D2
:1043800021780A290CD8904600F00EFA84F8230010
:10439000217848552078401C207088F8017021E071
:1043A0000B2804D00F280DD00A2812D01AE084F868
:1043B000008000202118401C81F82E800A28F9DD99
:1043C00057700FE02078401EC0B2207000F80580C2
:1043D000F6E720780B2805D10A490C20891F488070
:1043E0000B205070706800902A462321002033680B
:1043F000FFF7EAFEBDE8FC4100F034B9BDE8FC81FE
:10440000100200201E000020080000204D000000C7
:10441000454E54455220544845204E554D42455234
:104420000000000070B5014632480446FBF7C2FFA9
:1044300031A12046FBF7BEFF2E4D2146163D681CDC
:10444000FBF7B8FF642312222CA13148FDF7FAFDD7
:104450004FF4487605F1390433460122A11C2C485B
:10446000FDF7F0FD3220FCF791FA6423092229A11F
:104470002748FDF7E7FD33460122A11C2448FDF73C
:10448000E1FD3220FCF782FA64231522691C2048E2
:10449000FDF7D8FD33460122A11C1D48FDF7D2FDD2
:1044A0003220FCF773FA04F2231000F13401C279D0
:1044B00064231748FDF7C6FD33460122A11C1448AA
:1044C000FDF7C0FD3220FCF761FA33460122611C82
:1044D0000F48FDF7B7FD3220FCF758FA06A1A4F10A
:1044E00065000988A0F84210681CBDE870400CA166
:1044F000FBF73CBF5A0000202200000041542B4330
:10450000534D503D34392C3136372C302C38000087
:10451000680B002041542B434D47463D31000000BD
:1045200041542B434D47533D0000000070B5802897
:1045300013D2402911D20B4B012401F007051E793B
:10454000AC40094BC90800EBC1100EB132B101E01B
:10455000012A03D0195CA143195470BD195C214391
:10456000FAE70000000000204002002010B5064AD3
:1045700000214FF4806328B1FF245454491C994210
:10458000F9D310BD0024F8E74002002010B56420E4
:10459000FCF7FCF9AE2000F0CFF8202000F0CCF8BA
:1045A000102000F0C9F8B02000F0C6F8C82000F0D4
:1045B000C3F8002000F0C0F8102000F0BDF8402043
:1045C00000F0BAF8812000F0B7F8FF2000F0B4F84E
:1045D000A12000F0B1F8A62000F0AEF8A82000F06D
:1045E000ABF83F2000F0A8F8A42000F0A5F8D320F5
:1045F00000F0A2F8002000F09FF8D52000F09CF811
:10460000F02000F099F8D92000F096F8222000F070
:1046100093F8DA2000F090F8122000F08DF8DB20FB
:1046200000F08AF8202000F087F88D2000F084F850
:10463000142000F081F8AF2000F07EF80020FFF792
:1046400095FF00F00FF8034800210180418001210F
:10465000417110BD00000020014A10805180704758
:104660000000002070B50C4D002400BF04F1B00024
:10467000C0B200F061F8002000F05EF8102000F0F9
:104680005BF805EBC410802100F068F8641CE4B20C
:10469000082CEBD370BD0000400200202DE9FF4F35
:1046A000834624489246CEB202883244802A06D2FB
:1046B00081464088C1F307273844402803D30020AF
:1046C00004B0BDE8F08F002528E000BFABF120006A
:1046D00000FB075000243AF810801CE008FA04F0B0
:1046E000000409D599F8021099F8000029442044E3
:1046F000C9B2C0B2039A0BE00398C0B15FF00002E8
:1047000099F8021099F8000029442044C9B2C0B2B7
:10471000FFF70CFF641CA642E0D86D1CAF42D5D851
:10472000B9F8001058463144A9F80010C8E7012232
:10473000E6E700000000002001B584B001214FF041
:10474000FF3204A88DE807000B46002278210248BA
:10475000FCF702FC05B000BDF40900200EB54FF0D7
:10476000FF3289B28DE807000123402278210248F8
:10477000FCF7F2FB0EBD0000F4090020F0B51D4669
:104780000E46174604460AE02B463A463146FFF7E6
:1047900085FF2178884201D0C8B2F0BD641C207822
:1047A0000028F1D1C0B2F0BD154A90B1012812D055
:1047B000022812D0032812D0042812D0052812D0C3
:1047C000062812D0072812D0082812D0092812D0A3
:1047D00013E0302010E031200EE032200CE03320D6
:1047E0000AE0342008E0352006E0362004E03720D7
:1047F00002E0382000E039205054505C704700003F
:104800004006002000000000000000000000000042
:104810000000000000000000000000000000000098
:1048200000000000000000000000000C000C000C64
:10483000000C000C000C000C000C000C000C000C18
:104840000000000C000C0000000000000000001B35
:10485000001B001B001B001B0000000000000000EC
:104860000000000000000000000000000000000048
:1048700000008019801980198019C07FC07F8019BD
:104880000033C07FC07F00330033003300330000AB
:10489000000000000000001E003F8075806500746D
:1048A000003C001E00078005806580658075003F24
:1048B000001E0004000400000000007000D840D872
:1048C000C0D880D900730006000C801BC036C066BB
:1048D000C046C00680030000000000000000001E6B
:1048E000003F003300330033001E000CC03CC066A4
:1048F000806380618063C03E801C00000000000077
:104900000000000C000C000C000C000C000000006B
:104910000000000000000000000000000000000097
:1049200000000000800000010003000600060004F3
:10493000000C000C000C000C000C000C0004000625
:104940000006000300018000002000100018000C89
:10495000000C000400060006000600060006000623
:104960000004000C000C0018001000200000000CD7
:10497000002D003F001E003300000000000000007A
:104980000000000000000000000000000000000027
:10499000000000000000000C000C000C000CC0FF28
:1049A000C0FF000C000C000C000C00000000000018
:1049B00000000000000000000000000000000000F7
:1049C0000000000000000000000000000000000CDB
:1049D000000C0004000400080000000000000000BB
:1049E00000000000000000000000001E001E00008B
:1049F00000000000000000000000000000000000B7
:104A000000000000000000000000000000000000A6
:104A1000000000000000000C000C0000000000007E
:104A20000000000300030003000600060006000665
:104A3000000C000C000C000C0018001800180000FE
:104A4000000000000000001E003F00338061806114
:104A50008061806D806D8061806180610033003F86
:104A6000001E00000000000000000006000E001EF6
:104A700000360026000600060006000600060006B6
:104A80000006000600060000000000000000001EF6
:104A9000003F807380618061800100030006000C8C
:104AA000001800300060807F807F00000000000060
:104AB0000000001C003E006300630003000E000EB7
:104AC00000038001800180618073003F001E0000B0
:104AD0000000000000000006000E000E001E001E78
:104AE0000016003600360066807F807F00060006D4
:104AF00000060000000000000000007F007F006052
:104B000000600060006E007F806380018001806132
:104B10008073003F001E0000000000000000001E27
:104B2000003F803380610060006E007F8073806191
:104B3000806180618033003F001E000000000000A3
:104B40000000807F807F80010003000300060006D4
:104B5000000C000C000C00080018001800180000E1
:104B6000000000000000001E003F80638061806143
:104B70000021001E003F8061806180618061003FF4
:104B8000001E0000000000000000001E003F007337
:104B90008061806180618073803F801D80018061C1
:104BA0000073003F001E0000000000000000000035
:104BB000000000000000000C000C000000000000DD
:104BC000000000000000000C000C000000000000CD
:104BD000000000000000000000000000000C000CBD
:104BE00000000000000000000000000C000C0004A9
:104BF00000040008000000000000000080008003A6
:104C0000000E003800600038000E800380000000B5
:104C10000000000000000000000000000000000094
:104C20000000807F807F00000000807F807F000088
:104C30000000000000000000000000000000000074
:104C40000000000000400070001C00078001000709
:104C5000001C007000400000000000000000000088
:104C60000000001F803FC071C060C000C001800311
:104C70000007000E000C000C0000000C000C0000EF
:104C8000000000000000001E003F80318071806342
:104C9000806F806D806D806F806700600032003EA5
:104CA000001C0000000000000000000E000E001BB1
:104CB000001B001B001B80318031803F803F803112
:104CC000C060C060C0600000000000000000007C08
:104CD000007E0063006300630063007E007E00636B
:104CE000806180618063007F007E00000000000022
:104CF0000000001E003F80318061006000600060A5
:104D000000600060006080618031003F001E000094
:104D1000000000000000007C007F00638063806171
:104D20008061806180618061806100630063007EDA
:104D3000007C0000000000000000807F807F006099
:104D4000006000600060007F007F00600060006025
:104D50000060807F807F0000000000000000807FF6
:104D6000807F0060006000600060007F007F006066
:104D70000060006000600060006000000000000053
:104D80000000001E003F8031806100600060006014
:104D900080638063806180618031803F001E0000FD
:104DA000000000000000806180618061806180619E
:104DB0008061807F807F80618061806180618061AF
:104DC00080610000000000000000003F003F000C78
:104DD000000C000C000C000C000C000C000C000C73
:104DE000000C003F003F00000000000000008001B8
:104DF00080018001800180018001800180018001AB
:104E0000806180618073003F001E00000000000090
:104E10000000C0608061006300660066006C00787E
:104E2000007C00660066006380618061C0600000F5
:104E30000000000000000060006000600060006092
:104E40000060006000600060006000600060807FC3
:104E5000807F0000000000000000C071C071C07BB6
:104E6000C07AC06AC06AC06EC064C060C060C06002
:104E7000C060C060C06000000000000000008071E1
:104E80008071807980798079806D806D806D80659A
:104E90008067806780678063806300000000000097
:104EA0000000001E003F00338061806180618061EE
:104EB00080618061806180610033003F001E0000DE
:104EC000000000000000007E007F80638061806140
:104ED00080618063007F007E006000600060006091
:104EE00000600000000000000000001E003F0033D2
:104EF00080618061806180618061806180658067A0
:104F00000033803F401E0000000000000000007ED3
:104F1000007F8063806180618063007F007E006627
:104F20000063006380618061C060000000000000D9
:104F30000000000E001F8031803100300038001E5C
:104F400000078003806180618031003F001E000007
:104F5000000000000000C0FFC0FF000C000C000CAF
:104F6000000C000C000C000C000C000C000C000CE1
:104F7000000C000000000000000080618061806182
:104F80008061806180618061806180618061806119
:104F90008073003F001E0000000000000000C060A1
:104FA000C060C060803180318031001B001B001B5D
:104FB000001B000E000E000E0004000000000000A8
:104FC0000000C0C0C0C0C0C0C0C0C0C0C0CC804C09
:104FD000804C805E805280528073806180610000CE
:104FE000000000000000C0C0806080610033003B12
:104FF000001E000C000C001E001F003B8071806131
:10500000C0C00000000000000000C0C080618061DE
:1050100000330033001E001E000C000C000C000CBE
:10502000000C000C000C0000000000000000803F9D
:10503000803F8001000300030006000C000C0018F4
:10504000001800300060807F807F000000000000BA
:10505000000F000F000C000C000C000C000C000CEA
:10506000000C000C000C000C000C000C000C000CE0
:10507000000F000F0000001800180018000C000CB2
:10508000000C000C000600060006000600030003EA
:105090000003000000000000001E001E00060006C5
:1050A00000060006000600060006000600060006D0
:1050B0000006000600060006001E001E0000000C90
:1050C000000C001E0012003300338061806100007C
:1050D00000000000000000000000000000000000D0
:1050E00000000000000000000000000000000000C0
:1050F00000000000000000000000000000000000B0
:10510000E0FF0000000000380018000C0000000064
:10511000000000000000000000000000000000008F
:10512000000000000000000000000000000000007F
:105130000000001F803F80618001801F803F8061F0
:105140008063807FC0380000000000000000006025
:10515000006000600060006E007F8073806180618D
:10516000806180618073007F006E0000000000009D
:1051700000000000000000000000001E003F8073DF
:1051800080610060006080618073003F001E00004D
:105190000000000000008001800180018001801D6E
:1051A000803F807380618061806180618073803F17
:1051B000801D000000000000000000000000000052
:1051C0000000001E003F00738061807F807F0060D0
:1051D0008071003F001E0000000000000000C007BA
:1051E000C00F000C000C807F807F000C000C000CB6
:1051F000000C000C000C000C000C00000000000073
:105200000000000000000000801D803F807380616E
:105210008061806180618073803F801D8001806338
:10522000007F003E00000060006000600060006FD2
:10523000807F807180618061806180618061806138
:105240008061000000000000000000060006000071
:105250000000003E003E00060006000600060006B4
:105260000006000600060000000000000006000620
:1052700000000000003E003E00060006000600069A
:10528000000600060006000600060046007E003C00
:1052900000000060006000600060806100630066E4
:1052A000006C007C0076006300638061C0600000D9
:1052B000000000000000003E003E00060006000660
:1052C00000060006000600060006000600060006AE
:1052D00000060000000000000000000000000000C8
:1052E000000080DDC0FFC0CEC0CCC0CCC0CCC0CCE4
:1052F000C0CCC0CCC0CC000000000000000000000A
:10530000000000000000006F807F8071806180617C
:105310008061806180618061806100000000000028
:1053200000000000000000000000001E003F80732D
:1053300080618061806180618073003F001E000099
:10534000000000000000000000000000006E007F70
:10535000807380618061806180618073007F006EF6
:1053600000600060006000600000000000000000BD
:10537000801D803F80738061806180618061807367
:10538000803F801D800180018001800100000000BD
:105390000000000000000067803F0039003000304E
:1053A000003000300030003000300000000000000D
:1053B00000000000000000000000001E803F80612F
:1053C0000060007F803F80018061007F001E000040
:1053D0000000000000000000000800180018007F16
:1053E000007F001800180018001800180018801F0F
:1053F000800F00000000000000000000000000001E
:105400000000806180618061806180618061806175
:105410008063807F803D00000000000000000000ED
:10542000000000000000C060803180318031001B2E
:10543000001B001B000E000E000600000000000014
:105440000000000000000000000080DD80DD80DD45
:10545000005500550055007700770022002200001B
:10546000000000000000000000000000000080615B
:1054700000330033001E000C000C001E003300330C
:10548000806100000000000000000000000000003B
:1054900080618061803100330033001B001B001BE2
:1054A000000E000E000E001C007C007000000000CA
:1054B000000000000000C07FC07F800100030006E4
:1054C000000C00180030C07FC07F0000000000000A
:1054D0008003800700060006000600060006000E96
:1054E000001C001C000E0006000600060006000658
:1054F00080078003020005008800410001010104CB
:1055000001040104010401040104FE0F0006000669
:1055100000060006000600060038003C000C000CE7
:10552000000C000C000C000E00070007000E000C21
:10553000000C000C000C000C003C00382000500057
:1055400088000401020201040104010401040104B1
:105550000104FF0700000000000000000000000040
:10556000000000000000000000000000000000003B
:10557000002000200020002000200000002000006B
:10558000005000500050000000000000000000002B
:105590000050005000F8005000F80050005000008B
:1055A0000020007800A00070002800F0002000001B
:1055B00000C000C800100020004000980018000043
:1055C000004000A000A0004000A80090006800007B
:1055D000003000300020004000000000000000000B
:1055E000001000200040004000400020001000009B
:1055F00000400020001000100010002000400000BB
:10560000002000A8007000F8007000A80020000032
:1056100000000020002000F8002000200000000012
:1056200000000000000000000030003000200000FA
:1056300000000000000000F8000000000000000072
:1056400000000000000000000000000000300030FA
:105650000000000800100020004000800000000052
:1056600000700088009800A800C800880070000042
:1056700000200060002000200020002000700000BA
:1056800000700088000800700080008000F80000B2
:1056900000F80008001000300008008800700000CA
:1056A000001000300050009000F8001000100000C2
:1056B00000F8008000F0000800080088007000007A
:1056C00000380040008000F0008800880070000072
:1056D00000F80008000800100020004000800000D2
:1056E000007000880088007000880088007000004A
:1056F00000700088008800780008001000E00000BA
:105700000000000000200000002000000000000059
:1057100000000000002000000020002000400000E9
:1057200000080010002000400020001000080000C9
:105730000000000000F8000000F800000000000079
:105740000040002000100008001000200040000071
:1057500000700088000800300020000000200000D9
:105760000070008800A800B800B000800078000039
:10577000002000500088008800F8008800880000A1
:1057800000F00088008800F00088008800F0000029
:105790000070008800800080008000880070000099
:1057A00000F00088008800880088008800F0000071
:1057B00000F80080008000F00080008000F8000009
:1057C00000F80080008000F0008000800080000071
:1057D0000078008800800080009800880078000031
:1057E00000880088008800F8008800880088000091
:1057F0000070002000200020002000200070000029
:105800000038001000100010001000900060000030
:105810000088009000A000C000A000900088000058
:1058200000800080008000800080008000F8000080
:10583000008800D800A800A800A800880088000000
:105840000088008800C800A8009800880088000030
:1058500000700088008800880088008800700000C0
:1058600000F00088008800F00080008000800000C8
:10587000007000880088008800A800900068000080
:1058800000F00088008800F000A000900088000070
:105890000070008800800070000800880070000020
:1058A00000F800A8002000200020002000200000B8
:1058B0000088008800880088008800880070000048
:1058C00000880088008800880088005000200000C0
:1058D00000880088008800A800A800A800500000E8
:1058E00000880088005000200050008800880000D8
:1058F00000880088005000200020002000200000C8
:1059000000F80008001000700040008000F800005F
:105910000078004000400040004000400078000057
:10592000000000800040002000100008000000007F
:10593000007800080008000800080008007800004F
:10594000002000500088000000000000000000005F
:1059500000000000000000000000000000F800004F
:105960000060006000200010000000000000000047
:10597000000000000060001000700090007800003F
:105980000080008000B000C8008800C800B000009F
:105990000000000000700088008000880070000097
:1059A000000800080068009800880098006800005F
:1059B000000000000070008800F800800070000007
:1059C00000100028002000700020002000200000AF
:1059D00000000000007000980098006800080000B7
:1059E0000080008000B000C80088008800880000A7
:1059F0000020000000600020002000200070000057
:105A00000010000000100010001000900060000066
:105A100000800080009000A000C000A00090000066
:105A20000060002000200020002000200070000006
:105A30000000000000D000A800A800A800A80000F6
:105A40000000000000B000C8008800880088000046
:105A500000000000007000880088008800700000CE
:105A60000000000000B000C800C800B000800000C6
:105A7000000000000068009800980068000800001E
:105A80000000000000B000C800800080008000001E
:105A900000000000007800800070000800F00000A6
:105AA0000020002000F80020002000280010000046
:105AB000000000000088008800880098006800004E
:105AC00000000000008800880088005000200000CE
:105AD000000000000088008800A800A80050000016
