:020000040800F2
:10000000B8110020C9010008DB270008491F0008BB
:10001000D92700084D050008712F000800000000D6
:10002000000000000000000000000000A1280008FF
:1000300089060008000000007D280008A3280008A9
:10004000E3010008E3010008E3010008E301000800
:10005000E3010008E30100088B060008B70600086A
:10006000E3010008E3010008E3010008E3010008E0
:10007000E3010008E3010008E3010008E3010008D0
:10008000E3010008E3010008E3010008E3010008C0
:10009000E3010008E3010008E3010008E3010008B0
:1000A000E3010008F9280008E3010008E301000863
:1000B0000529000811290008E3010008E3010008F0
:1000C000E3010008E3010008E3010008E301000880
:1000D000E3010008652F0008E3010008E3010008C0
:1000E00091060008E3010008E301000800F002F8AF
:1000F00000F041F80AA090E8000C82448344AAF181
:100100000107DA4501D100F036F8AFF2090EBAE87E
:100110000F0013F0010F18BFFB1A43F0010318473B
:100120009C4F0000BC4F0000103A24BF78C878C133
:10013000FAD8520724BF30C830C144BF04680C60ED
:10014000704700000023002400250026103A28BF35
:1001500078C1FBD8520728BF30C148BF0B60704739
:10016000642900F09980002070471FB500F0E5F881
:100170001FBD10B510BD00F0AEF91146FFF7F5FF39
:1001800003F066FB00F0CCF903B4FFF7F2FF03BC09
:1001900000F0D6F90B49D1F800C04A685CF8043B7E
:1001A0001068184442F8040B8C4528BFA1F1DC0C00
:1001B0008A4228BFA1F1DC02C1F800C04A6020F0E9
:1001C000004070474C0B0020094880470948004711
:1001D000FEE7FEE7FEE7FEE7FEE7FEE7FEE7FEE7F7
:1001E000FEE7FEE704480549054A064B7047000054
:1001F000F7280008ED000008B80B0020B811002017
:10020000B80D0020B80D00200FB41CB5074B06AA8E
:100210007B4469460090059800F045F90020694646
:1002200000F054F91CBC5DF814FB0000B90200009A
:100230002DE9F0410E460446002020622046E16888
:10024000884730B3252805D0D4E901219047206A9A
:10025000401CF2E7E168204600278847050018D0D7
:10026000A5F14100192802D820354FF40067324625
:10027000294620462760FFF773FF40B1012804D0CC
:10028000F61D26F007060836D8E7361DD6E72846BD
:10029000DAE7206ABDE8F0812DE9F0410646002446
:1002A00010687529314616A510D0AFF300800028DC
:1002B00002DA404213A507E031688A0701D512A58A
:1002C00002E0490704D511A5012401E0AFF3008045
:1002D00000210A2206F1240709E0B0FBF2FCB0FB82
:1002E000F2F302FB1C00303078541846491C0028F9
:1002F000F3D123462A463046BDE8F04100F074B8F9
:10030000000000002D0000002B0000002000000075
:100310000B4910B5A1F17C020A4CC2E93712372112
:1003200006E000EB104342F82130074B00FB03408E
:100330000B1EA1F10101F4DC10BD0120E8E7000073
:10034000EC0A0020E119D666CD0D010040EA010358
:10035000024630B59B0710D14FF0013400E008C2CF
:1003600008C91D1B9D4315EAC41FF8D013F0FF01F7
:1003700002F8011B0DD01B0AF8E711F8013B002B16
:1003800002F8013B05D011F8013B002B02F8013BBC
:10039000F3D130BD4FF0000200B5134694469646A7
:1003A000203922BFA0E80C50A0E80C50B1F1200188
:1003B000BFF4F7AF090728BFA0E80C5048BF0CC036
:1003C0005DF804EB890028BF40F8042B08BF704794
:1003D00048BF20F8022B11F0804F18BF00F8012B06
:1003E00070477047704770472DE9F0470D469946B2
:1003F0009246044600F124080168880604D5E069A5
:1004000021F01001216000E00120A84201DD471B1E
:1004100000E00027A1697A1902EB0900081AA0611F
:100420002078C00602D42046AFF30080002608E002
:10043000D4E901211AF806009047206A401C761C76
:1004400020624E45F4DB2078C0060AD52046AFF383
:10045000008006E0D4E9012130209047206A401C4A
:100460002062381EA7F10107F4DC07E0D4E901217E
:1004700018F805009047206A401C2062281EA5F14C
:100480000105F3DC2046AFF300802078000602D59A
:100490000220BDE8F0870120FBE7000001694A1C4B
:1004A00002610878704700B58FB0CDE901310021B5
:1004B000059105497944CDE9031011466846FFF7D7
:1004C000B7FE0FB000BD0000E5FFFFFF0A6802F8AD
:1004D000010B0A607047754600F02CF8AE46050027
:1004E0006946534620F00700854618B020B5FFF74F
:1004F00079FEBDE820404FF000064FF000074FF0B6
:1005000000084FF0000B21F00701AC46ACE8C00931
:10051000ACE8C009ACE8C009ACE8C0098D4670473A
:1005200010B50446AFF300802046BDE81040FFF749
:100530002BBE000000487047540B0020704700009D
:1005400001491820ABBEFEE726000200FEE70000CE
:100550001CB51148017800291DD000210170084602
:1005600003F0AEFA0C48C01E82784178CDE9001243
:100570000378123002888188408802F09FFE064886
:100580005B30037A01784268407803F0DFF9BDE818
:100590001C4003F011BB1CBD210000202DE9FC41D3
:1005A0002F480178002959D04FF0000880F80080CA
:1005B000404603F085FA2A48C01E82784178CDE98A
:1005C00000120378123002888188408802F076FE9B
:1005D000244E25A23221706800900020336803F079
:1005E0001DFA7068009021A214210020336803F0E6
:1005F00015FA1B4A224C15321027507804F13005A9
:1006000009280ED821680A290BDC904603F076FBF6
:100610002071216848552068401C206088F80170CE
:1006200010E00B280ED10020C4F800802118401CD7
:1006300081F830800A28F9DD57704FF400511148D5
:1006400000F015FB706800902A46232100203368D3
:1006500003F0E4F9BDE8FC4103F0AEBABDE8FC816B
:1006600021000020080000204D000000454E5445A8
:100670005220544845204E554D424552000000003E
:10068000B8040020001001407047012000F0EEB9CE
:1006900010B54FF4805000F0E9F94FF4005000F02D
:1006A000E5F94FF4804000F0E1F9BDE810404FF467
:1006B000004000F0DBB9022000F0D8B972B6FEE7C6
:1006C0002DE9F84336480178002967D04FF000083B
:1006D00080F80080404603F0F3F9324832A24168C6
:1006E0000091036814211E2003F098F9304C31A2C8
:1006F0001421606800900020236803F08FF960687F
:1007000000902DA214217820236803F087F96068F7
:1007100000902AA232210020236803F07FF9204DA7
:100720004FF44877153505F11A04687804F1080686
:100730004FF010090A2802D00B2813D02AE06423B6
:1007400003221FA11F4801F0A5FB3B4601223146B1
:100750001C4801F09FFB3B460122211D194801F076
:1007600099FB15E06423032217A1164801F092FBC0
:100770003B4601223146134801F08CFB3B460122E7
:10078000211D104801F086FB05490939A1F80280B6
:1007900085F80190BDE8F84303F00EBABDE8F88390
:1007A000210000201000002052494E4700000000A8
:1007B000080000205200000041000000420000003C
:1007C00041544100A40900204154480010B590F85C
:1007D00021100022022905D00421816380F8202005
:1007E000012010BD01680B6823F00E030B60016847
:1007F0000B6823F001030B6090F84030C46B0121BB
:1008000001FA03F3636080F8211080F8202010467D
:1008100010BD000010B590F821100024022903D06B
:100820000421816301243DE001680A6822F00E0280
:100830000A6001680A6822F001020A601A4A016827
:10084000914201D1012121E0174A1432914201D194
:1008500010211BE0144A2832914201D1891515E07C
:10086000114A3C32914201D189140FE00E4A5032B4
:10087000914202D14FF4803108E00B4A6432914238
:1008800002D14FF4801101E04FF08071064A083A1E
:100890005160012180F82110002180F82010416B67
:1008A00001B18847204610BD0800024070B50446DB
:1008B00000F0EAF90546601C02D0044800780444C0
:1008C00000F0E2F9401BA042FAD370BD9C0000206A
:1008D0002DE9F05F624A01254FF0030851884FF07F
:1008E00005094FF0070BB0F5804F36D000264FF0CA
:1008F000080A02F11E04B0F5004F19D0594A04F15C
:100900005207012844D002285DD09114884270D14A
:10091000104600F0A7F980B3A6712078012874D0A2
:10092000022875D0032877D0042814D10B203FE08B
:10093000012923D021B3022925D0032923D004295A
:1009400023D005291FD006291DD007291BD008292F
:1009500019D0092917D0BDE8F09FA1B1012906D00F
:10096000032907D00529F6D1A2F802B0F3E7A2F8CF
:100970000280F0E7A2F80290EDE722E05680EAE775
:10098000A2F802A0E7E75580E5E7558010200FE0C8
:100990000121104600F066F998B1A671207801286F
:1009A00008D0022808D0032808D00428D3D10A2070
:1009B0006070D0E76570CEE7042017E084F801B0DE
:1009C000C9E7A571C7E70221104600F04BF90028DE
:1009D000F7D0A6712078012807D002280DD003286F
:1009E0000ED00428B7D16670B5E702206070386079
:1009F000B1E713E009E00BE00EE084F80190AAE70C
:100A000084F801A0C7F80080A5E784F80180A2E778
:100A1000062060703D609EE70920C9E74FF4005151
:100A2000884298D1104600F01DF90028C9D0A6715F
:100A3000207801280ED002280ED003280ED00428DA
:100A400089D10F206070BDE8F05F002202210648C6
:100A500000F015B90C20ABE70D20A9E70E20A7E7A1
:100A600018000020000C014000080140044910B5A6
:100A70000A68024202D00860FFF72AFF10BD00009A
:100A8000140401402DE9F84FDFF8B891002409F172
:100A9000040A0AF1040B23460F270BF1040EC9E0E8
:100AA0000125A5402A40AA427DD1674ED1F804C055
:100AB000ACEB0608B44532D014DCBCF1030F3AD0DD
:100AC00009DCBCF1000F2AD0BCF1010F1CD0BCF135
:100AD000020F31D11DE0BCF1110F17D0BCF1120F84
:100AE0002AD119E0B8F5881F19D006DCB8F5803F87
:100AF00015D0B8F5801F1FD111E0B8F5001F0ED03A
:100B0000B8F5041F18D10AE0CB6815E0CB681B1DAF
:100B100012E0CB6808330FE0CB680C330CE08B6835
:100B20002BB1012B4FF0080303D0456104E00423EF
:100B300002E0056100E00023FF2A01D8064601E03B
:100B400000F104064FEA840501D9A5F12005D6F885
:100B5000008007FA05FC28EA0C0803FA05F548EAC4
:100B60000508C6F800804D68ED0062D5374DAE69C6
:100B700046F00106AE61AD6924F0030605F00105FB
:100B80000095334D06EB050CDCF80850A607360F30
:100B900007FA06F825EA0805DFF8B880404503D1D2
:100BA0004FF0000817E044E0DFF8AC80404502D188
:100BB0004FF001080FE0DFF8A480404502D14FF06C
:100BC000020808E0DFF89880404502D14FF00308A2
:100BD00001E04FF0040808FA06F848EA0508CCF8E6
:100BE00008804D68D9F80060ED034D4601D51643E5
:100BF00000E096432E604D68DAF80060AD0355467C
:100C000001D5164300E096432E604D68DBF8006086
:100C1000ED025D4601D5164300E096432E604D6817
:100C2000DEF80060AD02754601D5164300E096433C
:100C30002E60641C0D682A46E5407FF431AFBDE8A4
:100C4000F88F000000040140000011100010024065
:100C50000000014000080140000C0140001001406C
:100C6000001401408068084000D001207047C2682D
:100C700021EA02030A4043EA0241016170470AB1D6
:100C8000016170470904FBE7014880687047000074
:100C90009C00002070B5040025D094F83D0000258C
:100CA00020B984F83C50204600F050F9242084F804
:100CB0003D002068016821F00101016020680168A1
:100CC00041F4004101602068016821F400410160A5
:100CD00000F0A2FA4D4A6168914201D84C4900E007
:100CE0004C49884201D2012070BD4B492368B0FBBA
:100CF000F1F15E6826F03F060E435E606368934242
:100D000006D94FF4967359434FF47A73B1FBF3F15C
:100D10002368491C1E6A26F03F0631431962616848
:100D2000914210D84900401EB0FBF1F2521CC2F3B0
:100D30000B02042A01D2042022E0B0FBF1F0401C97
:100D4000C0F30B001CE0A268F2B301EBC10303EB9C
:100D50000116431EB3FBF6F35B1C43F480431B05F3
:100D600049D092B301EBC10202EB0111401EB0FB6E
:100D7000F1F0401CC0F30B0040F4804040F4004010
:100D80002168CA694CF6FF739A431043C861D4E9DD
:100D9000071001432068026822F0C002114301607D
:100DA000D4E9030101432068826848F2FF339A4383
:100DB00011438160D4E9050108432168CA6822F023
:100DC000FF021043C86001E00EE016E020680168F1
:100DD00041F0010101602564202084F83D00256375
:100DE00084F83E50002070BD01EB4106431EB3FB6A
:100DF000F6F35B1CB3E70120C2E701EB4101401EA3
:100E0000B0FBF1F0401CC0F30B00B7E7A086010077
:100E100080841E0000093D0040420F002DE9FF4F75
:100E200083B09A46DDE9119793460446DDF8408089
:100E3000FFF72AFF054694F83D0020287FD11923AB
:100E4000012240492046009501F010F9002876D192
:100E500094F83C00012872D0012084F83C002068FE
:100E60000168C90703D1016841F0010101602068F0
:100E7000016821F400610160212084F83D004020D8
:100E800084F83E0000262664C4F82480A4F82A9042
:100E9000608D20852C48E062CDE9007553465A46A6
:100EA0002046049901F068F870B930E02A463946C6
:100EB000204601F05AF958B1206C042804D120686A
:100EC000016841F400710160012007B0BDE8F08FB6
:100ED000606A216800780861606A401C6062218D48
:100EE000491E89B22185628D521E6285226853692E
:100EF000DB435B070BD469B100781061606A401C6A
:100F00006062208D401E2085608D401E6085208D92
:100F10000028CBD12A463946204601F081F8002826
:100F2000CAD154F83D0B016841F4007101602020E2
:100F300004F81E09E67766770020C6E7FFE702207F
:100F4000C3E70000020010000000FFFF10B586B0EC
:100F50000021009101910291039100681349884298
:100F600022D1134CA06940F00800A061A069694635
:100F700000F0080004904FF440700090122001909F
:100F8000032003900B48FFF77DFD0B48416841F0BB
:100F9000E06141F002014160E06940F40010E0616D
:100FA000E06900F40010049006B010BD0054004049
:100FB00000100240000C014000000140024881681E
:100FC00002781144816070479C000020074810B5EA
:100FD000016841F010010160032000F075F80F2056
:100FE00000F006F800F024F8002010BD00200240B8
:100FF00070B50D4D04464FF47A712878B1FBF0F0CE
:101000000A490968B1FBF0F000F0ECFA48B9102C7D
:1010100007D200222146501E00F036F800206C60F6
:1010200070BD012070BD00009C000020A8000020C1
:101030000C4808B5816941F001018161816901F0C5
:1010400001010091C16941F08051C161C06900F0A6
:10105000805000900448416821F0E06141F0007147
:10106000416008BD0010024000000140002809DB7B
:1010700000F01F02012191404009800000F1E020B2
:10108000C0F8001170470000F0B40E4B1B680C460E
:10109000C3F30223C3F10705042D00D90425191D4C
:1010A000072901D2002300E0DB1E012606FA05F124
:1010B000491E214099409E40761E16403143F0BCA7
:1010C00001F057BF0CED00E0064900F00702086888
:1010D0004FF6FF03184040EA0220034A104308601D
:1010E000704700000CED00E00000FA052DE9F04724
:1010F0000F46050061D0434E306800F00700B8424B
:1011000009D2306820F0070038433060306800F0C2
:101110000700B84251D128683B4C810712D54007DF
:1011200003D5606840F4E06060602878000703D56C
:10113000606840F4605060606068A96820F0F0006A
:10114000084360602878C00728D06868012810D05C
:101150002168022810D0890700292EDA616821F061
:10116000030101436160FFF78FFD804641F288393A
:101170000DE021688903EFE78901EDE7FFF784FDC2
:10118000A0EB0801494502D90320BDE8F08760685B
:10119000696800F00C00B0EB810FEFD1306800F00F
:1011A0000700B8420BD9306820F0070038433060A0
:1011B000306800F00700B84201D00120E5E7287848
:1011C000400705D56068E96820F4E0600843606086
:1011D0002878000706D56068296920F4605040EA45
:1011E000C100606000F038F86168084AC1F303117B
:1011F000515CC8400649086006480068FFF7F8FEE1
:101200000020C2E70020024000100240A450000865
:10121000A8000020A0000020044805490068496893
:10122000044AC1F30221515CC8407047A800002065
:1012300000100240B450000804480549006849689D
:10124000044AC1F3C221515CC8407047A800002085
:1012500000100240B450000812A185B00FC98DE8FB
:101260000F0014A0144A006804905168134801F05C
:101270000C03042B10D0082B0ED1C1F38343C903F8
:101280001DF803000AD5516804AAC1F34041515C1E
:101290000A4A5043B0FBF1F005B070470849484393
:1012A000FAE7000002030405060708090A0B0C0D03
:1012B0000E0F1010010200000010024000127A0010
:1012C00000093D002DE9F84F040070D02078C04D92
:1012D000C00749D06868C0F38100012807D068685A
:1012E000C0F38100022809D16868C00306D52868C8
:1012F000800339D560680028E7D035E06068B0F534
:10130000803F0BD010B1B0F5A02F11D0286820F489
:1013100080302860286820F4802002E0286840F4AB
:1013200080302860606890B1FFF7AEFC06460AE0A6
:10133000286840F480202860F0E700BFFFF7A4FC95
:10134000801B642873D828688003F7D50CE0FFF76A
:101350009BFC064605E000BFFFF796FC801B642857
:10136000F0D828688003F7D420789A4E80074FF091
:1013700001094FF0000839D5686810F00C0F07D04C
:101380006868C0F38100022809D16868C00306D4E8
:101390002868800714D52069012808D110E0206949
:1013A000B0B1C6F80090FFF76FFC074605E00AE110
:1013B000FFF76AFCC01B0228C4D828688007F7D54D
:1013C0002868616920F0F80040EAC10028600DE05B
:1013D000C6F80080FFF758FC074604E0FFF754FC0E
:1013E000C01B022823D828688007F7D4207800077C
:1013F0002CD57948A169D9B1C0F80090FFF744FC19
:10140000074604E0FFF740FCC01B02280FD8686ABB
:101410008007F7D571484FF4FA510068B0FBF1F03E
:10142000009000BF0098411E0091FAD20EE080E0CB
:10143000C0F80080FFF728FC074604E0FFF724FC13
:10144000C01B022875D8686A8007F7D42078400747
:1014500060D5E8690027C00008D4E86940F08050F2
:10146000E861E869012700F0805000905C4801685D
:10147000C90513D40168834641F480710160FFF708
:1014800003FC824606E000BFFFF7FEFBA0EB0A006C
:1014900064284ED8DBF80000C005F5D5E0680128C7
:1014A0000AD008B1052813D0286A20F0010028626C
:1014B000286A20F0040002E0286A40F00100286257
:1014C000E06841F2883B98B1FFF7DEFB82460BE013
:1014D000286A40F004002862EEE700BFFFF7D4FB63
:1014E000A0EB0A0159455AD8286A8007F6D50CE0C6
:1014F000FFF7CAFB824605E0FFF7C6FBA0EB0A0137
:1015000059454CD8286A8007F6D41FB1E86920F005
:101510008050E861E06988B36968C1F381010229FC
:1015200044D00228C6F8608004D0FFF7ADFB044623
:1015300038E034E0FFF7A8FB074604E0FFF7A4FB20
:10154000C01B02282BD828688001F7D4206AB0F588
:10155000803F05D16868A16820F4003008436860C6
:10156000D4E908010843696821F4741108436860EC
:10157000C6F86090FFF788FB044606E025E000BF50
:10158000FFF782FB001B022809D828688001F7D5E5
:101590001BE000BFFFF778FB001B022802D90320E5
:1015A000BDE8F88F28688001F4D40EE00128F7D058
:1015B0006868226A00F48031914204D1616A00F4C3
:1015C0007010884201D00120EAE70020E8E700001F
:1015D000001002400000424280044242A800002065
:1015E0000070004010B5401EB0F1807F01D3012093
:1015F00010BD4FF0E02460610F21601701F0B9FCCD
:101600000020A06107202061002010BD70477047B6
:1016100070B590F83C20012A26D0012480F83C4087
:10162000022280F83D2003685A689D6822F0700607
:101630000A6832435A600D4B02689A4208D0B2F1F0
:10164000804F05D00A4B9A4202D00A4B9A4204D1ED
:10165000496825F080031943916080F83D400021DE
:1016600080F83C10084670BD022070BD002C01407F
:10167000000400400008004010B5040003D094F8B6
:101680003D0010B107E0012010BD002084F83C00AF
:10169000204600F01FF8022084F83D00211D20683C
:1016A00001F0D0FA012084F8460084F83E0084F866
:1016B0003F0084F8400084F8410084F8420084F838
:1016C000430084F8440084F8450084F83D0000207D
:1016D00010BD000008B51E4A01681E4891420ED197
:1016E000816941F4006181618069002200F4006039
:1016F000009011461920FFF7C7FC192013E0B1F143
:10170000804F14D0144A914220D1C16941F00201A6
:10171000C161C069002200F00200009011461D2046
:10172000FFF7B2FC1D20BDE80840FFF79FBCC16970
:1017300041F00101C161C069002200F00100009088
:1017400011461C20FFF7A0FC1C20ECE708BD0000A0
:10175000002C0140001002400004004090F83D10B1
:10176000012901D001207047022180F83D10016855
:10177000CA6842F00102CA6000680B49884208D07A
:10178000B0F1804F05D00949884202D0084988420B
:1017900004D1816801F00701062903D0016841F0F6
:1017A0000101016000207047002C0140000400404E
:1017B0000008004070B5044690F83C00012817D09E
:1017C000012584F83C50022084F83D00206882689E
:1017D00022F0770222F47F4282600868502830D0DD
:1017E0000DDC20284DD005DC98B310283BD148E013
:1017F000022070BD302844D0402834D139E0602820
:1018000028D0702806D0B0F5805F2CD0B0F5005FEE
:1018100029D10AE0CB68D1E90121206801F048FA1A
:101820002068816841F0770109E0CB68D1E90121A6
:10183000206801F03DFA2068816841F480418160B0
:1018400011E0CA684968206801F044FA5021206814
:1018500007E016E0CA684968206801F04CFA602188
:10186000206801F02FFA84F83D50002084F83C00F5
:1018700070BDCA684968206801F02CFA40212068D0
:10188000EFE7226801461046EBE7704770B5044663
:10189000006801694FF00005C943890715D4C16884
:1018A000C943890711D4E91E01610120207720680E
:1018B00080698007204602D0FFF7E7FF04E000F0D0
:1018C00098F8204600F096F8257720680169C9430A
:1018D000490717D4C168C943490713D46FF00401FD
:1018E0000161022020772068806910F4407F204643
:1018F00002D0FFF7CAFF04E000F07BF8204600F0BA
:1019000079F8257720680169C943090716D4C168A9
:10191000C943090712D46FF0080101610420207740
:101920002068C0698007204602D0FFF7AEFF04E0C0
:1019300000F05FF8204600F05DF825772068016927
:10194000C943C90617D4C168C943C90613D46FF087
:1019500010010161082020772068C06910F4407FE1
:10196000204602D0FFF791FF04E000F042F8204645
:1019700000F040F8257720680169C943C90708D1FC
:10198000C168C943C90704D1891E0161204600F01E
:1019900033F820680169C943090609D4C168C943FD
:1019A000090605D46FF0800101612046FFF72EFE85
:1019B00020680169C943490609D4C168C943490679
:1019C00005D46FF040010161204600F07FF82068E7
:1019D0000169C94389060BD4C168C943890607D484
:1019E0006FF0200101612046BDE87040FFF70FBE97
:1019F00070BD70477047000070B501680025304A1F
:101A0000B1F1804F05D1516808315160352900DBB3
:101A100055602C4C01680123A1423AD128491F3955
:101A20000B704B7009394C69012C01D014B130E0B6
:101A30004D612EE0224C4B61103C21883B2905D0A2
:101A4000491C218061883C2905D008E025806188F7
:101A5000491C6180F6E76580A188491CA18018496E
:101A6000A6883C31182E03D1A5804C78641C4C709C
:101A70004C781F2C06D14B700C78641C0C700C7ABF
:101A8000641C0C720C780D2C03D10B704C68641C18
:101A90004C6000680C4988420ED11068801D1060AF
:101AA000792800DB156006480A388179002903D0BF
:101AB0000178052901D3037070BD491C017070BD08
:101AC00040000020002C0140000400407047704797
:101AD00070470000F8B5026804461068D168536981
:101AE00010F00F0F4FF0000553D003F0010601F482
:101AF000907737435FD0C20705D0CA0503D5226C63
:101B000042F001022264420705D5DA0703D0226CB5
:101B100042F002022264820705D5DA0703D0226C64
:101B200042F004022264020707D501F0200232438A
:101B300003D0226C42F008022264226C002A34D0C6
:101B4000800604D5880602D5204601F006F92068F3
:101B50004069216CC0F38010090700D430B32046DF
:101B600001F0E3F82068416949061BD5416921F07D
:101B700040014161A06BA8B158494163A06BFEF7D9
:101B800049FE002811D0A06B416B01B0BDE8F040C8
:101B9000084783060FD58B060DD52046BDE8F840D3
:101BA00001F0DBB82046FFF793FFF8BD2046FFF7B2
:101BB0008FFF2564F8BD266B2023012E52D1C60667
:101BC00050D5CE064ED5106850680090506940063A
:101BD0002AD5A16B086840680004000CEAD0A68DE5
:101BE0008642E7D9E0858869202818D0D06820F49B
:101BF0008070D0602068416921F001014161206856
:101C0000416921F04001416184F83E30256320683C
:101C1000C16821F01001C160A06BFEF7D7FDA08D57
:101C2000E18D401A81B219E0A08DE18D401A81B298
:101C3000E08D0028BED00029BCD0D06820F4907080
:101C4000D0602068426922F00102426184F83E308F
:101C500025632068C26822F01002C2602046FFF7A8
:101C600036FFF8BD05062BD50D0629D594F83D00A5
:101C70002128F6D1A068B0F5805F01D12069B0B10C
:101C8000206A411C2162216800784860E08C401E77
:101C90000004000CE084E4D12068C16821F08001D8
:101CA000C1602068C16841F04001C160F8BD206A90
:101CB0000088C0F308005060206A801C2062E5E7BD
:101CC0004006F3D54806F1D5D168204621F0400101
:101CD000D16084F83D3000F036F9F8BD1B2D0008C6
:101CE00070B5040004D094F83D00002510B106E062
:101CF000012070BD84F83C50204600F023F82420D9
:101D000084F83D002068C16821F40051C16020467C
:101D100001F07EF82068016921F49041016120689A
:101D2000416921F02A0141612068C16841F40051F4
:101D3000C1602564202084F83D0084F83E00002026
:101D400070BD0000F0B585B00024009401940294A9
:101D500003940368384F022038490322384D460265
:101D6000BB4228D18B6943F480438B618B6903F4B8
:101D7000804304938B6943F004038B618969039268
:101D800001F0040104910102CDE9001069462846E2
:101D9000FEF778FECDE90064694628460294FEF716
:101DA00071FE002211462520FFF76EF92520FFF76E
:101DB0005DF905B0F0BD234FBB4219D1CB6943F4A7
:101DC0000033CB61CB6903F4003304938B6943F098
:101DD00004038B618969039201F0040104910421D9
:101DE000CDE9001069462846FEF74CFE08201BE0AE
:101DF000154DAB42DDD1CB6943F48023CB61CB6978
:101E000003F4802304938B6943F008038B61896991
:101E10000E4D01F00801CDE90321CDE900606946CE
:101E20002846FEF72FFEE814CDE90004694628464F
:101E30000294FEF727FEBCE7003801400010024084
:101E4000000801400044004000480040000C0140F0
:101E500090F83E30202B0ED159B152B190F83C3061
:101E6000012B08D0012380F83C300023036301F0EC
:101E70002BB801207047022070470000006803491A
:101E8000884202D102490120C870704700380140E1
:101E9000210000202DE9F843044690F83D001F463C
:101EA00016460D4620284CD1C5B1BEB194F83C0071
:101EB000012846D0012084F83C004FF00008C4F807
:101EC0004080212084F83D00FEF7DEFEA684814696
:101ED000E684A068B0F5805F03D004E00120BDE88F
:101EE000F883206928B12E465FF0000584F83C8015
:101EF0000EE00026FAE78021204601F000F8A0B9A4
:101F0000AEB116F8010B21684860E08C401EE084F9
:101F1000E08C4B464FF0000200970028EBD14FF0C9
:101F20004001204600F0EBFF30B10320D7E735F841
:101F3000020BC0F30800E6E7202084F83D000020F3
:101F4000CDE70220CBE77047FEE701684A69D2433C
:101F500052050FD46FF480624A61002140F8301FAF
:101F6000202242738173026942F00402026101730C
:101F700001207047002070472DE9F84304460068AF
:101F80000D46DDE9089701689846164641F48071D0
:101F900001604B4600224FF001112046009700F0EF
:101FA00065F848B120680068C00502D54FF400709C
:101FB00020640320BDE8F883216805F0FE00086175
:101FC0003B464A461549204600F084F888B9206807
:101FD0004169806900903A464946204600F0C5F8BC
:101FE00048B1206C042804D12068016841F40071D4
:101FF00001600120DEE7F5B2B8F1010F09D02168D8
:10200000300A08613A464946204600F0AEF80028FA
:10201000E7D1206805610020CCE700000200010044
:1020200070B516460D4604460DE02046FFF78DFFBD
:1020300008B1012070BD681C05D0FEF725FE801B8D
:10204000A84207D835B120684069C0434007ECD4A6
:10205000002070BD002044F8300F20216173A07370
:10206000216941F0200121612073E2E72DE9F04769
:102070001E4690460D460446C1F30747DDF8209002
:1020800008E0701C06D0FEF7FFFDA0EB0900B0428F
:102090000FD876B12068012F18D0806925EA00009A
:1020A0000004000C14D000214145EAD00020BDE816
:1020B000F087002044F8300F20216173A07321695C
:1020C00041F02001216120730120F0E74069E5E73C
:1020D0000121E9E72DE9F0479A4691460E4604466C
:1020E00000254FF02008C1F3074725E0206840692C
:1020F000C043400514D42068016841F400710160B8
:1021000021686FF480604861256384F83D8084F81D
:102110003E50206C40F00400206484F83C501FE0E6
:10212000B9F1FF3F08D0FEF7AFFDA0EB0A0149452A
:102130000CD8B9F1000F09D02068012F13D08069A5
:1021400026EA00000004000C0BD0CFE744F8305F13
:1021500084F80D80A573206940F02000206125736C
:102160000120BDE8F0874069EAE770B516460D46E4
:1021700004460DE02046FFF7E8FE08B1012070BDDF
:10218000681C05D0FEF780FD801BA84207D835B13A
:1021900020684069C0430006ECD4002070BD0020D8
:1021A00044F8300F20216173A073216941F02001B0
:1021B00021612073E2E700002DE9F0471C4800266A
:1021C00000F12F04C67022783C30217B1154207816
:1021D000401CC0B220701F2800D12670DFF850804C
:1021E0000025DFF850A04FF400590927A8F109088D
:1021F00049465046FEF73BFD6019417B52290BD101
:10220000817B492908D1C17B4E2905D1007C472813
:1022100002D1A8F8027026706D1C1E2DE8DDBDE805
:10222000F047034901223B310348FFF711BE00008C
:102230002100002000100140A40900201CB51E4907
:102240000878002837D00020087015314A780A2A0B
:102250002CD001F035FC1848C01E82784178CDE9B9
:1022600000120378123002888188408801F026F835
:10227000124C13A23221606800900020236801F004
:10228000CDFB104810A241680091036814211E2064
:1022900001F0C4FB606800900DA232217820236811
:1022A00001F0BCFBBDE81C4001F086BC10224A7066
:1022B0000149093948801CBD210000200800002088
:1022C0004800000010000020536E616B65000000A4
:1022D0004E0000001CB51F480178002939D00021AC
:1022E0000170153041780A292DD0002001F0E8FB5B
:1022F0001848C01E82784178CDE900120378123068
:1023000002888188408800F0D9FF134C13A2322143
:10231000606800900020236801F080FB104811A243
:1023200041680091036814211E2001F077FB60686A
:1023300000900EA232217820236801F06FFBBDE8E7
:102340001C4001F039BC10214170024904200939B8
:1023500048801CBD2100002008000020480000002B
:102360001000002054494D45000000004E000000C0
:102370001CB51F480178002938D00021017008469B
:1023800001F09EFB1A48C01E82784178CDE9001208
:102390000378123002888188408800F08FFF154C46
:1023A00015A23221606800900020236801F036FBFE
:1023B0006068009011A232217820236801F02EFB82
:1023C0000F4810A24168009114210368084601F0EB
:1023D00025FB01F0F1FB0648153041780A2905D1AB
:1023E000A0F11E0206215180102141701CBD000089
:1023F00021000020080000204D0000004E000000D9
:102400001000002043414C454E444552000000005E
:102410001CB51F480178002938D0002101700846FA
:1024200001F04EFB1A48C01E82784178CDE90012B7
:102430000378123002888188408800F03FFF154CF5
:1024400015A23221606800900020236801F0E6FAAE
:102450006068009011A232217820236801F0DEFA32
:102460000F4810A24168009103681421282001F050
:10247000D5FA01F0A1FB0648153041780A2905D1AB
:10248000A0F11E0208215180102141701CBD0000E6
:1024900021000020080000204D0000004E00000038
:1024A0001000002043414C4C000000002DE9F04199
:1024B00086B000243B4800940194029403948169FF
:1024C00041F010018161816901F01001049181697D
:1024D00041F020018161816901F02001049181694D
:1024E00041F004018161816901F004010491816975
:1024F00041F00801816180692B4F00F008004FF422
:1025000000550490002229463846FEF7B8FBDFF854
:102510009C800022F2214046FEF7B1FB0095022686
:1025200001250396CDE9015469463846FEF7AAFA1B
:10253000F220CDE90005CDE9024669464046FEF7A6
:10254000A1FA43F2030000901948CDE90106194CA5
:1025500069462046FEF796FA4FF440400090164830
:10256000CDE9010569462046FEF78CFA00221146A6
:102570000620FEF789FD0620FEF778FD00221146B1
:102580000720FEF781FD0720FEF770FD00221146AF
:102590002820FEF779FD2820FEF768FD06B0BDE88B
:1025A000F0810000001002400010014000080140CE
:1025B00000003110000C0140000011100D4810B552
:1025C0000B4901600C49416000214FF48042816059
:1025D000C0E9031241618161C1610162FEF75AFBEA
:1025E000002803D0BDE81040FEF768B810BD000019
:1025F0000054004078080020A086010010B586B085
:1026000000241748009401940294039404941349FD
:102610000594016041F63F71C0E901140911C0E958
:10262000031444618461FFF727F808B1FEF746F808
:102630004FF48050009069460948FFF7BBF808B195
:10264000FEF73CF8049404A905480594FEF7E0FF62
:10265000002801D0FEF732F806B010BD002C014072
:10266000CC08002010B586B00024164800940194D0
:102670000294039404944FF080410594016041F664
:102680003F71C0E901141321C0E903148461FEF70E
:10269000F3FF08B1FEF712F84FF48050009069463E
:1026A0000848FFF787F808B1FEF708F8049404A972
:1026B00004480594FEF7ACFF002801D0FDF7FEFFAB
:1026C00006B010BD1409002010B586B000241748CC
:1026D00000940194029403940494134905940160B6
:1026E00041F63F71C0E901140A21C0E90314846175
:1026F000FEF7C2FF08B1FDF7E1FF4FF480500090F4
:1027000069460A48FFF756F808B1FDF7D7FF049469
:1027100004A906480594FEF77BFF002801D0FDF7C9
:10272000CDFF06B010BD0000000400405C09002091
:102730000C4810B50A4901604FF416514160002160
:1027400081600C22C160C0E904128161C161FFF7A0
:10275000C7FA002803D0BDE81040FDF7AFBF10BD99
:1027600000380140A40900200C4810B50A49016056
:102770004FF4E1314160002181600C22C160C0E969
:1027800004128161C161FFF7ABFA002803D0BDE8F4
:102790001040FDF793BF10BD00440040E809002041
:1027A0000C4810B50A4901604FF4E1314160002145
:1027B00081600C22C160C0E904128161C161FFF730
:1027C0008FFA002803D0BDE81040FDF777BF10BD99
:1027D000004800402C0A0020FEE7FEE710B50B4C35
:1027E000002210212046FEF74AFA0022202120462E
:1027F000FEF745FA002240212046FEF740FA204627
:102800000022BDE810408021FEF739BA00080140DF
:102810001CB516480178002926D000210170084611
:1028200001F04EF91148C01E82784178CDE90012BE
:102830000378123002888188408800F0A1FD0C4C9A
:102840000CA23221606800900020236801F0E6F8B5
:102850006068009008A232217820236801F0DEF839
:10286000BDE81C4001F0A8B91CBD000021000020FB
:1028700008000020430000004D00000070470000E9
:1028800010B5064C606808B900F09AFF606801282E
:1028900003D1BDE8104000F06BBE10BD88000020E1
:1028A0007047FEF78BBB30B58FB028216846FDF727
:1028B00071FD14210AA8FDF76DFD01252804CDE95D
:1028C0000050002407946846FEF7FCFC08B172B67D
:1028D000FEE70F20CDE90A054FF48060CDE90C40FA
:1028E00000210AA80E94FEF701FC002801D072B660
:1028F000FEE70FB030BD70470148FEF7C7BF0000CC
:10290000CC0800200148FEF7C1BF000014090020D8
:102910000148FEF7BBBF00005C0900202DE9FC5F09
:10292000B848017800297BD0002500F11506057014
:1029300070781027B44C4FF001080C2806D00D28F1
:1029400007D00E2807D00F2809D00DE084F80A80A0
:1029500003E0022000E00320A072777004E084F816
:102960000B80777084F80A80002001F0A9F8DFF866
:102970009492A9F1030909F1120A99F8022099F831
:102980000110CDE9001299F80030BAF80020BAF829
:102990000410BAF8020001F051F89B4C227AA17998
:1029A000E07900F0C1FBA07ADFF860B210BBDBF881
:1029B000040000905C4696A214215020DBF8003001
:1029C00001F02CF86068009093A21E21502023682B
:1029D00001F024F86068009091A22821502023681B
:1029E00001F01CF8606800908FA209214B20236839
:1029F00001F014F8844CA07A012852D1DBF80410BD
:102A000000918CA228210020DBF8003001F006F8AC
:102A1000707809280DD8617A19B1012906D008E02B
:102A2000EDE02070777084F8098002E060707770C4
:102A300065722178607801EB810100EB4100C1B241
:102A4000A171172904D8227AE07900F06DFB01E02A
:102A50002570657070780A2802D00B281ED01FE000
:102A6000E07AA17988B189F80010E17989F801103C
:102A7000217A89F80210E5726570A570E5702571FC
:102A800065712570A57265720AE0AAF80410E179F3
:102A9000AAF80210217AAAF80010EDE725706570F7
:102AA0007770A07A022851D1DBF80410009163A25C
:102AB00028210020DBF8003000F0B0FF70780928F2
:102AC0000CD8617A11B1012905D007E0A0707770A8
:102AD00084F8098002E0E07077706572A178E07890
:102AE00001EB810100EB4100C0B2E0713B2804D84A
:102AF000227AA17900F018FB01E0A570E5707078EA
:102B00000A2802D00B281ED01FE0E07AA17988B1F4
:102B100089F80010E17989F80110217A89F802100A
:102B2000E5726570A570E570257165712570A572F7
:102B300065720AE0AAF80410E179AAF80210217A75
:102B4000AAF80010EDE7A570E5707770A07A032869
:102B500051D1DBF80410009139A228210020DBF8C4
:102B6000003000F05BFF707809280CD8617A11B151
:102B7000012905D007E02071777084F8098002E010
:102B80006071777065722179607901EB810100EBEA
:102B90004100C2B222723B2A04D8A179E07900F048
:102BA000C3FA01E02571657170780A2802D00B28FC
:102BB0001ED01FE0E07AA17988B189F80010E17990
:102BC00089F80110217A89F80210E5726570A57004
:102BD000E570257165712570A57265720AE0AAF825
:102BE0000410E179AAF80210217AAAF80010EDE7A2
:102BF000257165717770BDE8FC5F00F0DDBFBDE851
:102C0000FC9F000021000020F404002008000020A8
:102C1000463120484F5552004632204D494E000063
:102C20004633205345430000463420414C52414D29
:102C300000000000484F5552000000004D494E0072
:102C400053454300F0B50268164B174C174D4FF033
:102C50008047984205D0B84203D0A04201D0A84294
:102C600003D122F070064A683243984205D0B84238
:102C700003D0A04201D0A84203D122F44074CA6814
:102C800022434C6922F08002224302608A68C262B9
:102C90000A688262984201D1096901630121416198
:102CA000F0BD0000002C014000040040000800407E
:102CB00010B5846842EA032224F47F440A43224385
:102CC000826010BD826822F070020A4342F0070160
:102CD0008160704710B5036A046A24F0010404623D
:102CE000846924F0F00444EA021423F00A020A433F
:102CF0008461026210BD10B5036A23F01003036201
:102D00008369046A23F4704343EA023224F0A00387
:102D100043EA01118261016210BD10B5406A0021D1
:102D2000C185C184FEF7D4FE10BD0168CA6822F4D3
:102D30009072CA6001684A6922F001024A61016B1F
:102D4000012904D10168CA6822F01002CA6020215A
:102D500080F83E1000210163704708B590F83E10DE
:102D6000222901D0022008BD82684FF480539A4284
:102D700001D1016921B1816A9A421BD04AB10AE0AE
:102D80000268816A5268C2F308020A80816A891C5B
:102D900008E0026972B10268526802F07F020A70AC
:102DA000816A491C8162C18D491E0904090CC185D3
:102DB00003D019E002685268F1E70168CA6822F09E
:102DC0002002CA600168CA6822F48072CA60016881
:102DD0004A6922F001024A61202180F83E10016B0D
:102DE000012903D0FFF74AF8002008BD0021016344
:102DF0000168CA6822F01002CA6001680A68D20637
:102E000002D50A6849680091818DFEF760FEEBE704
:102E100070B5044600680169E26821F4405111432D
:102E200001612169A0680843616908432168CA6893
:102E300041F20C639A430243CA6020684169A26967
:102E400021F44071114341611E492068884202D13A
:102E5000FEF7F2F901E0FEF7DFF900EBC00101EB4C
:102E60000012606864218000B2FBF0F3B3FBF1F361
:102E70006FF018067343B2FBF0F5B2FBF0F605EB0A
:102E80008305322303EB0515B5FBF1F5B6FBF1F62F
:102E900005F0F00505EB0615B2FBF0F6B2FBF0F01D
:102EA000B0FBF1F06FF01802504306EB800003EB2B
:102EB0000010B0FBF1F0216800F00F00284488609A
:102EC00070BD00000038014081628285C28500210A
:102ED0000164222280F83E2080F83C100168CA6814
:102EE00042F48072CA6001684A6942F001024A6194
:102EF0000068C16841F02001C160002070472DE9E1
:102F0000F041984617460E460446069D1DE0681C93
:102F10001BD02DB1FDF7B8FEA0EB0800A84214D9D4
:102F20002068C16821F4D071C1602068416921F036
:102F300001014161202084F83D0084F83E0000201A
:102F400084F83C000320BDE8F0812068006836EA80
:102F5000000004D00020B842D9D00020F3E70120BF
:102F6000F9E700000148FEF7B5BD0000A409002004
:102F7000FEE70907090E002804DB00F1E02080F8D5
:102F80000014704700F00F0000F1E02080F8141DDD
:102F90007047000070B50D4606468AB014461421ED
:102FA000002000F003FE0A2295FBF2F028B996FB00
:102FB000F2F010B994FBF2F030B195FBF2F058B199
:102FC00096FBF2F028B107E033462A4635A100947B
:102FD0005CE094FBF2F018B195FBF2F028B10AE046
:102FE00033462A4633A1009450E096FBF2F010B12C
:102FF00094FBF2F060B195FBF2F028B196FBF2F091
:1030000010B194FBF2F040B195FBF2F050B114E036
:1030100033462A462BA1009438E033462A462DA198
:10302000009433E096FBF2F038B994FBF2F020B153
:1030300033462A462BA1009428E095FBF2F050B1CC
:1030400096FBF2F038B994FBF2F020B133462A46F1
:1030500028A100941AE095FBF2F050B996FBF2F02B
:1030600038B194FBF2F020B133462A4625A10094F2
:103070000CE095FBF2F060B196FBF2F048B194FBE6
:10308000F2F030B133462A4622A1009401A8FDF7A0
:10309000BBF824480123D0E9001201A800F018FE73
:1030A0000AB070BD302564203A20302564203A20D3
:1030B000302564002564203A20302564203A2030F1
:1030C00025640000302564203A202564203A203011
:1030D000256400002564203A202564203A2030250C
:1030E00064000000302564203A20302564203A2016
:1030F000256400002564203A20302564203A2025EC
:1031000064000000302564203A202564203A202500
:10311000640000002564203A202564203A202564BC
:10312000000000000800002070B50D4606468AB079
:1031300014461E21002000F039FD0A2295FBF2F012
:1031400028B996FBF2F010B994FBF2F030B195FB80
:10315000F2F058B196FBF2F028B107E033462A4668
:1031600035A100945CE094FBF2F018B195FBF2F00D
:1031700028B10AE033462A4633A1009450E096FB7A
:10318000F2F010B194FBF2F060B195FBF2F028B1CF
:1031900096FBF2F010B194FBF2F040B195FBF2F027
:1031A00050B114E033462A462BA1009438E0334650
:1031B0002A462DA1009433E096FBF2F038B994FB37
:1031C000F2F020B133462A462BA1009428E095FB6B
:1031D000F2F050B196FBF2F038B994FBF2F020B166
:1031E00033462A4628A100941AE095FBF2F050B924
:1031F00096FBF2F038B194FBF2F020B133462A4648
:1032000025A100940CE095FBF2F060B196FBF2F082
:1032100048B194FBF2F030B133462A4622A1009423
:1032200001A8FCF7F1FF24480123D0E9001201A80E
:1032300000F04EFD0AB070BD302564203A203025E4
:1032400064203A20302564002564203A203025642B
:10325000203A203025640000302564203A2025647F
:10326000203A2030256400002564203A202564207F
:103270003A20302564000000302564203A203025B3
:1032800064203A20256400002564203A203025641B
:10329000203A202564000000302564203A2025646F
:1032A000203A2025640000002564203A202564206F
:1032B0003A202564000000000800002030B589B0E5
:1032C00005460C460C98A34207D1A84205D122B965
:1032D000012202211D48FDF7D2FC0021084600F022
:1032E00065FC0A2094FBF0F111B995FBF0F149B1AE
:1032F00094FBF0F111B195FBF0F139B194FBF0F1D1
:1033000041B10EE02B46224611A113E02B46224686
:1033100012A10FE095FBF0F119B12B46224612A144
:1033200008E094FBF0F141B195FBF0F028B12B4699
:10333000224610A16846FCF767FF10480123D0E938
:103340000012684600F0C4FC09B030BD000801401E
:10335000302564203A203025640000002564203A9E
:103360002030256400000000302564203A202564C8
:10337000000000002564203A202564000800002099
:1033800030B589B005460C460C98A34207D1A84237
:1033900005D122B9012202211D48FDF770FC14213C
:1033A0001A2000F003FC0A2094FBF0F111B995FB00
:1033B000F0F149B194FBF0F111B195FBF0F139B1A5
:1033C00094FBF0F141B10EE02B46224611A113E02F
:1033D0002B46224612A10FE095FBF0F119B12B46C6
:1033E000224612A108E094FBF0F141B195FBF0F008
:1033F00028B12B46224610A16846FCF705FF10486D
:103400000123D0E90012684600F062FC09B030BD2B
:1034100000080140302564203A2030256400000077
:103420002564203A20302564000000003025642007
:103430003A202564000000002564203A202564001D
:10344000100000202DE9FC5FDFF80081404D0026D0
:1034500008F1120BA8F106044FF064094FF00A0AB4
:10346000002000F02DFB98F8022098F80110CDE91B
:10347000001298F80030BBF80020BBF80410BBF82D
:103480000200FFF71BFF1421002000F08FFBD5E99D
:10349000001201232FA000F01BFC20784F46B0FB48
:1034A000F7F0303060702821002000F07FFBD5E974
:1034B000001201232AA000F00BFC2821492000F073
:1034C00075FBD5E900120123607800F091FB2078AC
:1034D000B0FBF7F107FB11005746B0FBF7F03030B7
:1034E00060702821502000F061FBD5E90012012313
:1034F000607800F07DFB2078B0FBF7F107FB11004E
:10350000303060702821572000F050FBD5E90012C0
:103510000123607800F06CFB4FF4AF70FDF7C6F943
:1035200000F04AFB761C042E9ADD01200F49206131
:1035300000200822C1E9000204496A31086048609D
:1035400008742070BDE8FC5FFFF79AB91E000020E8
:103550000800002047616D65204F7665720000000D
:10356000596F75722053636F72650000000500206B
:103570002DE9FC477448417800297CD00021417036
:10358000084600F09DFA704A704C6732A2F170054F
:103590001068012805D0022803D0032801D0042890
:1035A0003DD1296909E000BF04EBC10353F8086D60
:1035B00044F831605E68491EDE600029F4DC0128B1
:1035C00006D0022809D003280ED0042811D009E023
:1035D0002068801D2060012003E06068083860607A
:1035E00002201074012617E0606808306060032034
:1035F000F7E72068801F20600420F2E754F83600C7
:103600002168884207D104EBC6006168406888429F
:1036100001D1FFF717FF761C28698642EEDD4A4E7E
:10362000206827363168884247D1606871688842CF
:1036300043D12878A6F10801401C2870A1F124008C
:103640000A78027009794170012780464FF0140909
:103650004FF0060A25E000BF54F8371098F8002014
:1036600091421DD104EBC70198F8010049688142DD
:1036700016D1012700E064E0FCF78CFD90FBF9F225
:1036800009FB120000EB4000400088F80000FCF746
:1036900081FD90FBFAF20AFB1200C00088F80100DD
:1036A0007F1C28698742D7DD98F80010316098F8B0
:1036B000010070602869401C28612348C01E827880
:1036C0004178CDE900120378123002888188408861
:1036D000FFF7F4FDDFF878801EA20020D8F8041070
:1036E00000913221D8F8003000F098F900270DE061
:1036F00004EBC700017914F8370000F057FAD8E955
:103700000012012314A000F0E3FA7F1C286987420D
:10371000EEDB3179307800F049FAD8E90012012364
:103720000DA000F0D5FA00F047FA2068782804D2FE
:103730006068352801DC002803DABDE8FC47FFF7A4
:1037400081BEBDE8FC8700002100002000050020AC
:10375000080000204D0000002E00000010B5174C9E
:10376000012811D0022817D003281DD0042823D106
:10377000012280212046FDF782FA002240212046C6
:10378000BDE81040FDF77BBA012210212046FDF76D
:1037900076FA00228021F2E7012220212046FDF75F
:1037A0006EFA00221021EAE7012240212046FDF7AF
:1037B00066FA00222021E2E710BD00000008014067
:1037C0007CB51C480178002933D000F11504102184
:1037D000617000260670304600F072F904F152055F
:1037E000142100202E6000F0E1F913480123D0E9F4
:1037F000001212A000F06CFA134814A24168009164
:1038000003683221002000F009F9A4F11800827841
:103810004178CDE90012037812300288818840880F
:10382000FFF74CFD00F0C8F960780A2801D10120AB
:1038300068607CBD2100002010000020507265658A
:103840007320537461727400080000204D00000062
:10385000FDF7BCFBFFF727F8FEF728FEFEF7AEFEEC
:10386000FEF7CCFEFEF764FFFEF77EFFFEF798FF43
:10387000FEF7F8FEFEF728FF2E48FDF76FFF2E48F3
:10388000FDF76CFF2D48FDF769FF00F029F9FEF701
:10389000A5FF01222A492B48FEF7DAFA0520FDF799
:1038A00005F84FF44873022227A12648FEF7F2FAE2
:1038B000234D263DA5F11E0404F109062878FFF7E3
:1038C0004DFF608890B1012813D0022814D003283E
:1038D00015D0042816D0052817D0062818D0072898
:1038E00019D008281AD009281BD01CE0FEF790FF39
:1038F00019E0FEF7A3FC16E0FEF7C2FF13E0FEF7A7
:10390000E9FC10E0FFF70AF80DE0FEF731FD0AE0F0
:10391000FCF71EFE07E0FEF77BFD04E0FCF73EFE31
:1039200001E0FCF7CDFEF0780128C7D1FEF744FC9A
:10393000C4E70000CC080020140900205C09002026
:103940005C000020A4090020415400002DE9F04152
:10395000234D8AB08046686800901C4616460F4684
:1039600020A2322100202B6800F058F83B46424646
:103970001DA101A80096FCF747FC6868009001AA09
:1039800014210A202B6800F049F8012C0CD0022CDD
:103990000CD0032C0CD0042C0CD0052C0CD0062CF5
:1039A0000CD0072C0CD00FE013A10AE013A108E003
:1039B00013A106E014A104E014A102E015A100E0A7
:1039C00015A101A8FCF7C2FC6868009001AA1E219D
:1039D0000A202B6800F022F80AB0BDE8F081000050
:1039E000080000204D0000002564202F20256420C1
:1039F0002F2025640000000053554E004D4F4E000F
:103A00005455455300000000574544005448555252
:103A100053000000465249005341540070B51D4602
:103A20001646C9B2C0B2049C00F0C0F8224629462E
:103A30003046BDE87040012300F04AB97CB50D4620
:103A40000646DDE90601CDE9000114462946304667
:103A5000FFF734FC084B09A23221586800901B681C
:103A60000020FFF7DBFF02B0224629463046BDE8C2
:103A70007040FFF78FBA0000080000204D000000E2
:103A800070B5802813D2402911D20B4B012401F0CC
:103A900007051E79AC40094BC90800EBC1100EB1F7
:103AA00032B101E0012A03D0195CA143195470BD61
:103AB000195C2143FAE7000000000020AC00002060
:103AC00010B5064A00214FF4806328B1FF245454F6
:103AD000491C9942F9D310BD0024F8E7AC0000203E
:103AE00010B56420FCF7E2FEAE2000F0CFF82020F5
:103AF00000F0CCF8102000F0C9F8B02000F0C6F8B3
:103B0000C82000F0C3F8002000F0C0F8102000F03A
:103B1000BDF8402000F0BAF8812000F0B7F8FF208F
:103B200000F0B4F8A12000F0B1F8A62000F0AEF843
:103B3000A82000F0ABF83F2000F0A8F8A42000F087
:103B4000A5F8D32000F0A2F8002000F09FF8D520BF
:103B500000F09CF8F02000F099F8D92000F096F8D9
:103B6000222000F093F8DA2000F090F8122000F004
:103B70008DF8DB2000F08AF8202000F087F88D20F7
:103B800000F084F8142000F081F8AF2000F07EF8F7
:103B90000020FFF795FF00F00FF803480021018097
:103BA00041800121417110BD00000020014A1080B8
:103BB000518070470000002070B50C4D002400BFFC
:103BC00004F1B000C0B200F061F8002000F05EF82F
:103BD000102000F05BF805EBC410802100F068F8BD
:103BE000641CE4B2082CEBD370BD0000AC000020D4
:103BF0002DE9FF4F834624489246CEB202883244D4
:103C0000802A06D281464088C1F3072738444028DD
:103C100003D3002004B0BDE8F08F002528E000BFEA
:103C2000ABF1200000FB075000243AF810801CE0A4
:103C300008FA04F0000409D599F8021099F8000078
:103C400029442044C9B2C0B2039A0BE00398C0B122
:103C50005FF0000299F8021099F80000294420440E
:103C6000C9B2C0B2FFF70CFF641CA642E0D86D1CBD
:103C7000AF42D5D8B9F8001058463144A9F8001021
:103C8000C8E70122E6E700000000002001B584B08B
:103C900001214FF0FF3204A88DE807000B460022F7
:103CA00078210248FDF7BAF805B000BD7808002079
:103CB0000EB54FF0FF3289B28DE807000123402294
:103CC00078210248FDF7AAF80EBD00007808002010
:103CD000F0B51D460E46174604460AE02B463A4606
:103CE0003146FFF785FF2178884201D0C8B2F0BD88
:103CF000641C20780028F1D1C0B2F0BD154A90B103
:103D0000012812D0022812D0032812D0042812D081
:103D1000052812D0062812D0072812D0082812D061
:103D2000092812D013E0302010E031200EE03220BC
:103D30000CE033200AE0342008E0352006E036208D
:103D400004E0372002E0382000E039205054505C75
:103D500070470000AC0400200000000000000000DC
:103D60000000000000000000000000000000000053
:103D70000000000000000000000000000000000C37
:103D8000000C000C000C000C000C000C000C000CD3
:103D9000000C000C0000000C000C000000000000F3
:103DA0000000001B001B001B001B001B000000008C
:103DB0000000000000000000000000000000000003
:103DC0000000000000008019801980198019C07F50
:103DD000C07F80190033C07FC07F003300330033C1
:103DE00000330000000000000000001E003F80754E
:103DF00080650074003C001E0007800580658065BA
:103E00008075003F001E00040004000000000070E8
:103E100000D840D8C0D880D900730006000C801BA1
:103E2000C036C066C046C006800300000000000027
:103E30000000001E003F003300330033001E000C62
:103E4000C03CC066806380618063C03E801C00000F
:103E5000000000000000000C000C000C000C000C26
:103E60000000000000000000000000000000000052
:103E700000000000000000008000000100030006B8
:103E800000060004000C000C000C000C000C000CE0
:103E9000000400060006000300018000002000105E
:103EA0000018000C000C00040006000600060006C6
:103EB000000600060004000C000C00180010002092
:103EC0000000000C002D003F001E00330000000029
:103ED00000000000000000000000000000000000E2
:103EE00000000000000000000000000C000C000CAE
:103EF000000CC0FFC0FF000C000C000C000C000008
:103F000000000000000000000000000000000000B1
:103F100000000000000000000000000000000000A1
:103F20000000000C000C0004000400080000000069
:103F30000000000000000000000000000000001E63
:103F4000001E000000000000000000000000000053
:103F50000000000000000000000000000000000061
:103F600000000000000000000000000C000C000039
:103F7000000000000000000300030003000600062C
:103F800000060006000C000C000C000C00180018C5
:103F900000180000000000000000001E003F003379
:103FA000806180618061806D806D806180618061F1
:103FB0000033003F001E000000000000000000066B
:103FC000000E001E00360026000600060006000651
:103FD00000060006000600060006000000000000C3
:103FE0000000001E003F807380618061800100033B
:103FF0000006000C001800300060807F807F000009
:10400000000000000000001C003E0063006300038D
:10401000000E000E00038001800180618073003F6C
:10402000001E00000000000000000006000E000E50
:10403000001E001E0016003600360066807F807F5E
:104040000006000600060000000000000000007FDF
:10405000007F006000600060006E007F8063800170
:10406000800180618073003F001E0000000000009E
:104070000000001E003F803380610060006E007F02
:1040800080738061806180618033003F001E00008A
:10409000000000000000807F807F8001000300039B
:1040A00000060006000C000C000C000800180018A8
:1040B00000180000000000000000001E003F8063A8
:1040C000806180610021001E003F8061806180610D
:1040D0008061003F001E0000000000000000001E84
:1040E000003F00738061806180618073803F801D2C
:1040F000800180610073003F001E0000000000008E
:1041000000000000000000000000000C000C000097
:1041100000000000000000000000000C000C000087
:10412000000000000000000000000000000000008F
:10413000000C000C00000000000000000000000C5B
:10414000000C000400040008000000000000000053
:1041500080008003000E003800600038000E8003ED
:1041600080000000000000000000000000000000CF
:10417000000000000000807F807F00000000807F42
:10418000807F000000000000000000000000000030
:10419000000000000000000000400070001C00074C
:1041A00080010007001C00700040000000000000BB
:1041B000000000000000001F803FC071C060C00010
:1041C000C00180030007000E000C000C0000000C72
:1041D000000C0000000000000000001E003F8031C5
:1041E00080718063806F806D806D806F80670060FC
:1041F0000032003E001C0000000000000000000E25
:10420000000E001B001B001B001B80318031803F13
:10421000803F8031C060C060C060000000000000CE
:104220000000007C007E0063006300630063007E8A
:10423000007E0063806180618063007F007E0000FB
:10424000000000000000001E003F8031806100601F
:104250000060006000600060006080618031003FAD
:10426000001E0000000000000000007C007F0063D2
:1042700080638061806180618061806180610063B2
:104280000063007E007C0000000000000000807FD2
:10429000807F0060006000600060007F007F006041
:1042A000006000600060807F807F000000000000F0
:1042B0000000807F807F0060006000600060007F01
:1042C000007F00600060006000600060006000002F
:1042D000000000000000001E003F8031806100608F
:1042E0000060006080638063806180618031803F16
:1042F000001E0000000000000000806180618061FD
:10430000806180618061807F807F80618061806169
:104310008061806180610000000000000000003FBB
:10432000003F000C000C000C000C000C000C000CFA
:10433000000C000C000C003F003F000000000000DB
:1043400000008001800180018001800180018001E6
:1043500080018001806180618073003F001E000049
:10436000000000000000C06080610063006600661D
:10437000006C0078007C00660066006380618061EC
:10438000C0600000000000000000006000600060ED
:10439000006000600060006000600060006000601D
:1043A0000060807F807F0000000000000000C0717E
:1043B000C071C07BC07AC06AC06AC06EC064C06091
:1043C000C060C060C060C060C0600000000000004D
:1043D000000080718071807980798079806D806D36
:1043E000806D806580678067806780638063000080
:1043F000000000000000001E003F0033806180616B
:104400008061806180618061806180610033003FF4
:10441000001E0000000000000000007E007F80639E
:104420008061806180618063007F007E0060006049
:104430000060006000600000000000000000001E3E
:10444000003F0033806180618061806180618061B4
:10445000806580670033803F401E00000000000040
:104460000000007E007F8063806180618063007F48
:10447000007E00660063006380618061C0600000B0
:10448000000000000000000E001F8031803100306D
:104490000038001E00078003806180618031003F8A
:1044A000001E0000000000000000C0FFC0FF000C64
:1044B000000C000C000C000C000C000C000C000C9C
:1044C000000C000C000C00000000000000008061E7
:1044D00080618061806180618061806180618061D4
:1044E000806180618073003F001E000000000000BA
:1044F0000000C060C060C060803180318031001B2E
:10450000001B001B001B000E000E000E000400002C
:10451000000000000000C0C0C0C0C0C0C0C0C0C01B
:10452000C0CC804C804C805E805280528073806111
:1045300080610000000000000000C0C08060806159
:104540000033003B001E000C000C001E001F003B4F
:1045500080718061C0C00000000000000000C0C089
:104560008061806100330033001E001E000C000CCF
:10457000000C000C000C000C000C000000000000FF
:104580000000803F803F8001000300030006000C14
:10459000000C0018001800300060807F807F000051
:1045A00000000000000F000F000C000C000C000CBD
:1045B000000C000C000C000C000C000C000C000C9B
:1045C000000C000C000F000F00000018001800186D
:1045D000000C000C000C000C000600060006000693
:1045E000000300030003000000000000001E001E86
:1045F000000600060006000600060006000600068B
:10460000000600060006000600060006001E001E4A
:104610000000000C000C001E00120033003380610B
:1046200080610000000000000000000000000000A9
:10463000000000000000000000000000000000007A
:10464000000000000000000000000000000000006A
:1046500000000000E0FF0000000000380018000C1F
:10466000000000000000000000000000000000004A
:10467000000000000000000000000000000000003A
:10468000000000000000001F803F80618001801F4B
:10469000803F80618063807FC038000000000000A0
:1046A00000000060006000600060006E007F8073AA
:1046B00080618061806180618073007F006E000096
:1046C0000000000000000000000000000000001ECC
:1046D000003F807380610060006080618073003FF4
:1046E000001E000000000000000080018001800129
:1046F0008001801D803F8073806180618061806166
:104700008073803F801D000000000000000000005A
:10471000000000000000001E003F00738061807FE9
:10472000807F00608071003F001E000000000000DC
:104730000000C007C00F000C000C807F807F000CC1
:10474000000C000C000C000C000C000C000C000015
:10475000000000000000000000000000801D803FFD
:10476000807380618061806180618073803F801D83
:1047700080018063007F003E0000006000600060F8
:104780000060006F807F80718061806180618061E6
:104790008061806180610000000000000000000670
:1047A000000600000000003E003E00060006000675
:1047B00000060006000600060006000000000000DB
:1047C0000006000600000000003E003E0006000655
:1047D0000006000600060006000600060006004669
:1047E000007E003C000000600060006000608061AE
:1047F00000630066006C007C0076006300638061EB
:10480000C0600000000000000000003E003E000606
:104810000006000600060006000600060006000668
:104820000006000600060000000000000000000076
:1048300000000000000080DDC0FFC0CEC0CCC0CCB6
:10484000C0CCC0CCC0CCC0CCC0CC000000000000AC
:1048500000000000000000000000006F807F8071F9
:104860008061806180618061806180618061000021
:104870000000000000000000000000000000001E1A
:10488000003F807380618061806180618073003F40
:10489000001E0000000000000000000000000000FA
:1048A000006E007F807380618061806180618073B1
:1048B000007F006E0060006000600060000000008B
:1048C00000000000801D803F8073806180618061F6
:1048D00080618073803F801D8001800180018001A4
:1048E000000000000000000000000067803F003969
:1048F0000030003000300030003000300030000068
:104900000000000000000000000000000000001E89
:10491000803F80610060007F803F80018061007F78
:10492000001E000000000000000000000008001849
:104930000018007F007F00180018001800180018E9
:104940000018801F800F0000000000000000000021
:1049500000000000000080618061806180618061F2
:10496000806180618063807F803D000000000000E6
:1049700000000000000000000000C06080318031B5
:104980008031001B001B001B000E000E0006000003
:10499000000000000000000000000000000080DDBA
:1049A00080DD80DD0055005500550077007700223E
:1049B00000220000000000000000000000000000D5
:1049C0000000806100330033001E000C000C001E4C
:1049D0000033003380610000000000000000000090
:1049E0000000000080618061803100330033001BD3
:1049F000001B001B000E000E000E001C007C00704F
:104A000000000000000000000000C07FC07F8001A7
:104A100000030006000C00180030C07FC07F0000BB
:104A20000000000080038007000600060006000664
:104A30000006000E001C001C000E0006000600060A
:104A40000006000680078003020005008800410080
:104A50000101010401040104010401040104FE0F29
:104A60000006000600060006000600060038003CAE
:104A7000000C000C000C000C000C000E00070007DE
:104A8000000E000C000C000C000C000C003C003868
:104A90002000500088000401020201040104010406
:104AA000010401040104FF070000000000000000F1
:104AB00000000000000000000000000000000000F6
:104AC0000000000000200020002000200020000046
:104AD00000200000005000500050000000000000C6
:104AE000000000000050005000F8005000F8005096
:104AF000005000000020007800A00070002800F0A6
:104B00000020000000C000C80010002000400098F5
:104B100000180000004000A000A0004000A8009085
:104B2000006800000030003000200040000000005D
:104B30000000000000100020004000400040002065
:104B400000100000004000200010001000100020A5
:104B500000400000002000A8007000F8007000A8CD
:104B60000020000000000020002000F800200020AD
:104B700000000000000000000000000000300030D5
:104B80000020000000000000000000F8000000000D
:104B90000000000000000000000000000000000015
:104BA00000300030000000080010002000400080AD
:104BB0000000000000700088009800A800C800886D
:104BC0000070000000200060002000200020002075
:104BD00000700000007000880008007000800080F5
:104BE00000F8000000F800080010003000080088FD
:104BF00000700000001000300050009000F800101D
:104C00000010000000F8008000F000080008008894
:104C10000070000000380040008000F0008800882C
:104C20000070000000F8000800080010002000409C
:104C300000800000007000880088007000880088F4
:104C400000700000007000880088007800080010E4
:104C500000E0000000000000002000000020000034
:104C600000000000000000000020000000200020E4
:104C7000004000000008001000200040002000104C
:104C8000000800000000000000F8000000F800002C
:104C9000000000000040002000100008001000206C
:104CA0000040000000700088000800300020000074
:104CB000002000000070008800A800B800B000804C
:104CC00000780000002000500088008800F800886C
:104CD0000088000000F00088008800F0008800884C
:104CE00000F00000007000880080008000800088D4
:104CF0000070000000F000880088008800880088AC
:104D000000F0000000F80080008000F000800080CB
:104D100000F8000000F80080008000F000800080B3
:104D200000800000007800880080008000980088E3
:104D30000078000000880088008800F8008800885B
:104D400000880000007000200020002000200020CB
:104D500000700000003800100010001000100090DB
:104D6000006000000088009000A000C000A000903B
:104D700000880000008000800080008000800080AB
:104D800000F80000008800D800A800A800A800884B
:104D9000008800000088008800C800A800980088EB
:104DA0000088000000700088008800880088008863
:104DB0000070000000F00088008800F00080008093
:104DC00000800000007000880088008800A8009023
:104DD0000068000000F00088008800F000A000904B
:104DE00000880000007000880080007000080088C3
:104DF0000070000000F800A8002000200020002023
:104E00000020000000880088008800880088008852
:104E1000007000000088008800880088008800502A
:104E20000020000000880088008800A800A800A8D2
:104E300000500000008800880050002000500088CA
:104E4000008800000088008800500020002000201A
:104E50000020000000F800080010007000400080F2
:104E600000F8000000780040004000400040004092
:104E700000780000000000800040002000100008C2
:104E80000000000000780008000800080008000882
:104E900000780000002000500088000000000000A2
:104EA0000000000000000000000000000000000002
:104EB00000F800000060006000200010000000000A
:104EC0000000000000000000006000100070009072
:104ED000007800000080008000B000C8008800C892
:104EE00000B0000000000000007000880080008812
:104EF0000070000000080008006800980088009812
:104F000000680000000000000070008800F80080C9
:104F10000070000000100028002000700020002019
:104F20000020000000000000007000980098006859
:104F3000000800000080008000B000C800880088E1
:104F400000880000002000000060002000200020F9
:104F50000070000000100000001000100010009011
:104F60000060000000800080009000A000C000A051
:104F700000900000006000200020002000200020A1
:104F8000007000000000000000D000A800A800A8E9
:104F900000A800000000000000B000C800880088E1
:104FA0000088000000000000007000880088008871
:104FB000007000000000000000B000C800C800B091
:104FC0000080000000000000006800980098006861
:104FD000000800000000000000B000C80080008051
:104FE00000800000000000000078008000700008D1
:104FF00000F000000020002000F800200020002821
:105000000010000000000000008800880088009860
:105010000068000000000000008800880088005040
:1050200000200000000000000088008800A800A800
:1050300000500000000000000088005000200050D8
:105040000088000000000000008800880078000848
:10505000008800000000000000F800100020004060
:1050600000F8000000100020002000400020002078
:105070000010000000200020002000000020002080
:105080000020000000400020002000100020002030
:1050900000400000004000A80010000000000000D8
:1050A00000000000000000000000000001020304F6
:1050B000060708090000000001020304DC50000894
:1050C00000000020AC000000280100088851000802
:1050D000AC0000200C11000044010008000000009A
:1050E0000000000006080000B44A00080B1200008F
:1050F000583D00080000000000001A0000000000F9
:1051000000000000000000000000000032003B0032
:105110001700010000000000010000000000000076
:105120000800000000000000000000000000000077
:105130001A0000000D000000000000000000000048
:10514000000000000000000000000000000000005F
:1051500000000000000000000C1E0000D00700004E
:10516000010000000000000000000000000000003E
:10517000E803000000000000010000001000000033
:08518000000000000024F4000F
:04000005080000ED02
:00000001FF
